:100000000C9438000C9455000C9455000C94550039
:100010000C9455000C9455000C9455000C9455000C
:100020000C9455000C9455000C9455000C945500FC
:100030000C9455000C9455000C9455000C945500EC
:100040000C9455000C9455000C9455000C945500DC
:100050000C9455000C9455000C9455000C945500CC
:100060000C9455000C9455006E616E00696E66002C
:1000700011241FBECFEFD8E0DEBFCDBF12E0A0E05D
:10008000B1E0E2EDF1E602C005900D92AA3BB107A6
:10009000D9F722E0AAEBB2E001C01D92A03CB20762
:1000A000E1F70E94A1230C94E52F0C940000299AFB
:1000B00085ED8A95F1F700002998089595B1937C14
:1000C00095B984FD2A9A85FD2B9A86FD2C9A87FD89
:1000D0002D9A0C945700CF93C82F0E945E008C2F4E
:1000E0008295807F0E945E002D98CF910895289878
:1000F0000C946B00289A0C946B0083E30E947700A9
:1001000082E30E94770088E20E9477008CE00E94E0
:10011000770086E00E94770081E00E9477008FEDF3
:100120009EE20197F1F700C00000089581E00E946F
:1001300077008FED9EE20197F1F700C0000008956F
:10014000CF93DF93EC018991811103C0DF91CF91AF
:1001500008950E947A00F7CF0F931F93CF93DF93F8
:10016000CDB7DEB728970FB6F894DEBF0FBECDBF70
:100170008E010F5F1F4F28E0F80111922A95E9F7D1
:100180009F938F9380E192E09F938F931F930F93A0
:100190000E94612FC8010E94A0000F900F900F9045
:1001A0000F900F900F9028960FB6F894DEBF0FBEF9
:1001B000CDBFDF91CF911F910F9108950F931F93A2
:1001C000CF93DF93CDB7DEB764970FB6F894DEBF59
:1001D0000FBECDBF8E010F5F1F4F24E1F8011192BA
:1001E0002A95E9F79F938F937F936F9383E192E032
:1001F0009F938F931F930F930E94612FC8010E94BA
:10020000A0000FB6F894DEBF0FBECDBF64960FB648
:10021000F894DEBF0FBECDBFDF91CF911F910F913C
:1002200008950F931F93CF93DF9300D0CDB7DEB720
:100230008B01BE016F5F7F4F0E946A23F8016083CC
:1002400071838283938389819A81892BF9F080E875
:100250008AB94D9B1AC00E94960080EC0E947700DC
:1002600088E192E00E94A00080E80E94770084E28A
:1002700092E00E94A000FFEF21EE84E0F1502040C8
:100280008040E1F700C00000E4CF1AB80F900F9053
:10029000DF91CF911F910F9108952F923F924F922E
:1002A0005F926F927F928F929F92AF92BF92CF9206
:1002B000DF92EF92FF920F931F93CF93DF93CDB70F
:1002C000DEB7CF54D1090FB6F894DEBF0FBECDBF55
:1002D0008B012A968FAF2A9729969FAF2997298756
:1002E000332E27964FAF279728965FAF289720E0A9
:1002F00030E0A9016B017C01C701B6010E945C2AB4
:10030000C12CD12C90E8E92E9FEBF92E181634F071
:10031000C12CD12C80E8E82E8FE3F82EC701B6015E
:10032000905809831A832A962FAD2A972B832996F2
:100330003FAD29973C8329813A814B815C810E94A2
:10034000612A262E2C967FAF2C972D968FAF2D9756
:10035000192F8984932C2796AFAC27972896BFAC8A
:100360002897A5019401C701B6010E94612AB62E03
:10037000072F382E892E2BED3FE049E450E4C701CA
:10038000B6010E94612A20E030E040E05FE36D8327
:100390007E838F8398876D817E818F8198850E946F
:1003A000612A2B013C0180E491E09A838983912C9E
:1003B000A12C90E89D83EFE3E98720E030E0A901DC
:1003C000BA860B873C868D866A857B858C859D8564
:1003D0000E945C2AC12CD12C90E818160CF014C194
:1003E0008FEB9E86AF86FD81F88B2985298B2E8524
:1003F0003F8548895989E92EF82ECA8ADB8A9C8B69
:100400008D8B6A897B898C899D890E94612A2796B8
:100410006FAF279728967FAF289729968FAF299798
:100420002A969FAF2A97BE8A0F8B388E898E2E8987
:100430003F89488D598D6A8F7B8F2996EFAD29971B
:10044000EC8F2A96FFAD2A97FD8F6A8D7B8D8C8D60
:100450009D8D0E94612A6E8F7F8F88A399A32E8D18
:100460003F8D48A159A12C968FAD2C9760968FAFE8
:1004700060972D969FAD2D972F969FAF2F972AA20D
:100480008BA39CA31DA36AA17BA18CA19DA10E940B
:1004900090282B966FAF2B972C967FAF2C972D968D
:1004A0008FAF2D972E969FAF2E972EA26096EFAD11
:1004B0006097EFA32F96FFAD2F97F8A719A72EA14E
:1004C0003FA148A559A527968FAD27978AA72896BB
:1004D0009FAD28979BA72996EFAD2997ECA72A9661
:1004E000FFAD2A97FDA76AA57BA58CA59DA50E94B7
:1004F000612A6EA77FA788AB99AB2EA53FA548A917
:1005000059A9BAAA0BAB3CAA8DAA6AA97BA98CA946
:100510009DA90E949128B62E072F382E892EE98199
:10052000FA816191719181919191FA83E983CEAAC7
:10053000DFAAE8AEF9AE2EA93FA948AD59AD0E9499
:10054000612A6AAF7BAF8CAF9DAF2AAD3BAD4CAD9E
:100550005DADC301B2010E9491286EAF7FAF2196BD
:100560008FAF219722969FAF229722964CAC5DAC1D
:100570006EAC7FAC229720E030E040E05FE3239652
:100580009FAE23972496AFAE2497FD812596FFAFAB
:100590002597898526968FAF269726966CAD7DADDB
:1005A0008EAD9FAD26970E94612A962EA72E8D8331
:1005B0009987E0E8F1E029813A81E217F307E9F44D
:1005C000C301B2019058C15BDF4F0FB6F894DEBF94
:1005D0000FBECDBFDF91CF911F910F91FF90EF9094
:1005E000DF90CF90BF90AF909F908F907F906F9053
:1005F0005F904F903F902F9008952B962FAC2B97A4
:100600002E961FAD2E97D9CE8FE3EBCECF92DF92F1
:10061000EF92FF9220E030E040E85FE36B017C0165
:10062000C701B601FF90EF90DF90CF900C944D0181
:100630002F923F924F925F926F927F928F929F92F2
:10064000AF92BF92CF92DF92EF92FF920F931F93E0
:10065000CF93DF93CDB7DEB7CE59D1090FB6F8945B
:10066000DEBF0FBECDBF6D837E838F83988720E46E
:1006700031E0CB56DF4F39832883C559D040A12CB8
:10068000B12CC12CD12C19821A8230E83B838FE324
:100690008C83C956DF4F1882C759D040C856DF4FE8
:1006A0001882C859D040C756DF4F1882C959D04068
:1006B000C656DF4F1882CA59D040E12CF12C00E019
:1006C00010E0C256DF4F1882CE59D040C356DF4FDC
:1006D0001882CD59D04020E8222E3FE3332E412C02
:1006E000512C80E8682E8FE3782E19C020E030E08E
:1006F000A90199819987EA81EA87FB81FB878C812F
:100700008C8769857A858B859C850E94FD2887FF6B
:10071000E6CF412C512C90E8692E9FEB792E9D81DC
:100720009D87EE81EE87FF81FF872885288B2D85A9
:100730003E854F855889A98ABA8ACB8ADC8A69891D
:100740007A898B899C890E94FD28181624F477FAEF
:10075000709477F87094A3019201ED8AFE8A0F8B52
:10076000188F6D897E898F89988D0E9491287B01D1
:100770008C01698FFA8E8B8F1C8F298D3A8D4B8D52
:100780005C8DC256DF4F8881CE59D0408D8FC356C5
:10079000DF4F9881CD59D0409E8F2F8E38A26D8D1E
:1007A0007E8D8F8D98A10E94612A3B014C0169A327
:1007B0007AA28BA39CA229A13AA14BA15CA1ADA2D4
:1007C000BEA2CFA2D8A66DA17EA18FA198A50E949E
:1007D000612A69A77AA78BA79CA729A53AA54BA54B
:1007E0005CA5E981EDA7FA81FEA78B818FA79C818B
:1007F00098AB6DA57EA58FA598A90E949028C55697
:10080000DF4F6883CB59D040C456DF4F7883CC5933
:10081000D0402C0169AA7AAA8BAA9CAA29A93AA934
:100820004BA95CA9E981EDABFA81FEAB8B818FAB63
:100830009C8198AF6DA97EA98FA998AD0E94612A6D
:10084000A9AEBAAECBAEDCAE29AD3AAD4BAD5CAD28
:100850006DAF7EAF8FAF21969FAF219721966CAD84
:100860007DAD8EAD9FAD21970E9491285B016C01FB
:1008700022966FAF22972396BFAE239724968FAF11
:1008800024972596DFAE259725962CAD3DAD4EAD30
:100890005FAD259726966FAE269727967FAE279752
:1008A00028968FAE289729969FAE299729966CADEA
:1008B0007DAD8EAD9FAD29970E94612A2A966FAFBC
:1008C0002A972B967FAF2B972C968FAF2C972D9630
:1008D0009FAF2D972D962CAD3DAD4EAD5FAD2D97B5
:1008E000C556DF4FE881CB59D0402E96EFAF2E97FB
:1008F000C456DF4FF881CC59D0402F96FFAF2F97C9
:1009000060964FAE609761965FAE619761966CADF1
:100910007DAD8EAD9FAD61970E94902869837A83EB
:100920008B839C83C556DF4F2881CB59D04062967C
:100930002FAF6297C456DF4F3881CC59D0406396B1
:100940003FAF639764964FAE649765965FAE6597C9
:1009500065962CAD3DAD4EAD5FAD659766966FAEBD
:10096000669767967FAE679768968FAE6897699629
:100970009FAE699769966CAD7DAD8EAD9FAD699761
:100980000E94612A6A96AFAE6A976B96BFAE6B976C
:100990006C96CFAE6C976D96DFAE6D976D962CAD65
:1009A0003DAD4EAD5FAD6D976E966FAF6E976F9626
:1009B0007FAF6F97A0968FAFA097A1969FAFA1979B
:1009C000A1966CAD7DAD8EAD9FADA1970E94912893
:1009D0005B016C01CB56DF4FE881F981C559D040EE
:1009E0004190519061907190CB56DF4FF983E8832D
:1009F000C559D040A296EFAEA297A396FFAEA3979B
:100A0000A4960FAFA497A5961FAFA597A5962CAD5A
:100A10003DAD4EAD5FADA597A696EFAEA697A79656
:100A2000FFAEA797A8960FAFA897A9961FAFA99753
:100A3000A9966CAD7DAD8EAD9FADA9970E94912812
:100A4000A3019201AA966FAFAA97AB967FAFAB971F
:100A5000AC968FAFAC97AD969FAFAD97AD966CADA2
:100A60007DAD8EAD9FADAD970E94612AAE966FAF02
:100A7000AE97AF967FAFAF97E0968FAFE097E196D6
:100A80009FAFE197E1962CAD3DAD4EAD5FADE197E7
:100A9000C956DF4FF881C759D040E296FFAFE297C1
:100AA000C856DF4F8881C859D040E3968FAFE3978F
:100AB000C756DF4F9881C959D040E4969FAFE4975D
:100AC000C656DF4FE881CA59D040E596EFAFE597AB
:100AD000E5966CAD7DAD8EAD9FADE5970E949128FA
:100AE000C956DF4F6883C759D040C856DF4F788357
:100AF000C859D040C756DF4F8883C959D040C65621
:100B0000DF4F9883CA59D040FD81E696FFAFE69744
:100B10002E81E7962FAFE7973F81E8963FAFE897A2
:100B20008885E9968FAFE997E9962CAD3DAD4EAD3E
:100B30005FADE997C256DF4F9881CE59D040EA9613
:100B40009FAFEA97C356DF4FE881CD59D040EB966F
:100B5000EFAFEB97EC962FAEEC97ED963FAEED979F
:100B6000ED966CAD7DAD8EAD9FADED970E94612A87
:100B7000C256DF4FF881CE59D040EE96FFAFEE97C8
:100B8000C356DF4F2881CD59D040EF962FAFEF9756
:100B9000C158DF4F2882CF57D040C058DF4F38822E
:100BA000C058D040C358DF4F288139814A815B81CA
:100BB000CD57D040CF57DF4F6883C158D040CE5774
:100BC000DF4F7883C258D040CD57DF4F8883C3585A
:100BD000D040CC57DF4F9883C458D040CF57DF4F19
:100BE000688179818A819B81C158D0400E94612AA5
:100BF000CB57DF4F6883C558D040CA57DF4F788343
:100C0000C658D040C957DF4F8883C758D040C8570F
:100C1000DF4F9883C858D040CB57DF4F28813981A8
:100C20004A815B81C558D0408D81C757DF4F88838B
:100C3000C958D0409E81C657DF4F9883CA58D040CC
:100C4000EF81C557DF4FE883CB58D040F885C457B4
:100C5000DF4FF883CC58D040C757DF4F6881798188
:100C60008A819B81C958D0400E9491286D837E83E0
:100C70008F83988720E030E040E05FE3C256DF4F8B
:100C80008881CE59D040C357DF4F8883CD58D0409C
:100C9000C356DF4F9881CD59D040C257DF4F98835C
:100CA000CE58D040C157DF4F2882CF58D040C057D0
:100CB000DF4F3882C059D040C357DF4F68817981F8
:100CC0008A819B81CD58D0400E94612AC256DF4F55
:100CD0006883CE59D040C356DF4F7883CD59D0407A
:100CE0001C01E0E8F1E0CB56DF4F28813981C5597E
:100CF000D040E217F30709F0F9CCC956DF4F38812D
:100D0000C759D040CF56DF4F3883C159D040C8565D
:100D1000DF4F8881C859D040CE56DF4F8883C259F3
:100D2000D040C756DF4F9881C959D040CD56DF4FCC
:100D30009883C359D040C656DF4FE881CA59D04086
:100D4000CC56DF4FE883C459D040CF56DF4F68817F
:100D500079818A819B81C159D040C256DF4F0FB63D
:100D6000F894DEBF0FBECDBFDF91CF911F910F91E1
:100D7000FF90EF90DF90CF90BF90AF909F908F90BB
:100D80007F906F905F904F903F902F9008952F929B
:100D90003F924F925F926F927F928F929F92AF920B
:100DA000BF92CF92DF92EF92FF920F931F93CF9358
:100DB000DF93CDB7DEB7CE59D1090FB6F894DEBFB9
:100DC0000FBECDBF6D837E838F83988720E431E093
:100DD000CB56DF4F39832883C559D040A12CB12C85
:100DE00020E8C22E3FE3D32E19821A8230E83B83DB
:100DF0008FE38C83C956DF4F1882C759D040C8563D
:100E0000DF4F1882C859D040C756DF4F1882C959E2
:100E1000D040C656DF4F1882CA59D040E12CF12C81
:100E200000E010E0C256DF4F1882CE59D040C356C2
:100E3000DF4F1882CD59D04040E8242E5FE3352E95
:100E4000412C512C80E8682E8FE3782E15C020E0CD
:100E500030E0A901A986BA86CB86DC8669857A85C9
:100E60008B859C850E94FD2887FFEACF412C512C61
:100E700090E8692E9FEB792E9D819D87EE81EE870C
:100E8000FF81FF872885288B2D853E854F855889D2
:100E90008981898B9A819A8BEB81EB8BFC81FC8B0E
:100EA00069897A898B899C890E945C2A87FF04C0A2
:100EB00077FA709477F87094A3019201ED8AFE8A14
:100EC0000F8B188F6D897E898F89988D0E9491284C
:100ED0007B018C01698FFA8E8B8F1C8F298D3A8D47
:100EE0004B8D5C8DC256DF4F8881CE59D0408D8F9F
:100EF000C356DF4F9881CD59D0409E8F2F8E38A298
:100F00006D8D7E8D8F8D98A10E94612A3B014C01D1
:100F100069A37AA28BA39CA229A13AA14BA15CA1AF
:100F2000ADA2BEA2CFA2D8A66DA17EA18FA198A589
:100F30000E94612A69A77AA78BA79CA729A53AA531
:100F40004BA55CA5E981EDA7FA81FEA78B818FA750
:100F50009C8198AB6DA57EA58FA598A90E9490282D
:100F6000C556DF4F6883CB59D040C456DF4F7883D6
:100F7000CC59D0402C0169AA7AAA8BAA9CAA29A98B
:100F80003AA94BA95CA9E981EDABFA81FEAB8B8153
:100F90008FAB9C8198AF6DA97EA98FA998AD0E9457
:100FA000612AA9AEBAAECBAEDCAE29AD3AAD4BAD3F
:100FB0005CAD6DAF7EAF8FAF21969FAF219721962D
:100FC0006CAD7DAD8EAD9FAD21970E9491285B01E8
:100FD0006C0122966FAF22972396BFAE239724967B
:100FE0008FAF24972596DFAE259725962CAD3DAD86
:100FF0004EAD5FAD259726966FAE269727967FAEAE
:10100000279728968FAE289729969FAE29972996DD
:101010006CAD7DAD8EAD9FAD29970E94612A2A9659
:101020006FAF2A972B967FAF2B972C968FAF2C976D
:101030002D969FAF2D972D962CAD3DAD4EAD5FAD4E
:101040002D97C556DF4FE881CB59D0402E96EFAF94
:101050002E97C456DF4FF881CC59D0402F96FFAF62
:101060002F9760964FAE609761965FAE61976196DD
:101070006CAD7DAD8EAD9FAD61970E949028698368
:101080007A838B839C83C556DF4F2881CB59D04010
:1010900062962FAF6297C456DF4F3881CC59D0404B
:1010A00063963FAF639764964FAE649765965FAE65
:1010B000659765962CAD3DAD4EAD5FAD6597669677
:1010C0006FAE669767967FAE679768968FAE6897A4
:1010D00069969FAE699769966CAD7DAD8EAD9FADFB
:1010E00069970E94612A6A96AFAE6A976B96BFAE07
:1010F0006B976C96CFAE6C976D96DFAE6D976D96D5
:101100002CAD3DAD4EAD5FAD6D976E966FAF6E97EA
:101110006F967FAF6F97A0968FAFA097A1969FAF66
:10112000A197A1966CAD7DAD8EAD9FADA1970E94AC
:1011300091285B016C01CB56DF4FE881F981C559DD
:10114000D0404190519061907190CB56DF4FF98320
:10115000E883C559D040A296EFAEA297A396FFAE02
:10116000A397A4960FAFA497A5961FAFA597A59692
:101170002CAD3DAD4EAD5FADA597A696EFAEA69753
:10118000A796FFAEA797A8960FAFA897A9961FAFEF
:10119000A997A9966CAD7DAD8EAD9FADA9970E9424
:1011A0009128A3019201AA966FAFAA97AB967FAF41
:1011B000AB97AC968FAFAC97AD969FAFAD97AD9612
:1011C0006CAD7DAD8EAD9FADAD970E94612AAE96A0
:1011D0006FAFAE97AF967FAFAF97E0968FAFE097C8
:1011E000E1969FAFE197E1962CAD3DAD4EAD5FAD81
:1011F000E197C956DF4FF881C759D040E296FFAF5B
:10120000E297C856DF4F8881C859D040E3968FAF28
:10121000E397C756DF4F9881C959D040E4969FAFF6
:10122000E497C656DF4FE881CA59D040E596EFAF44
:10123000E597E5966CAD7DAD8EAD9FADE5970E94CF
:101240009128C956DF4F6883C759D040C856DF4F31
:101250007883C859D040C756DF4F8883C959D040DA
:10126000C656DF4F9883CA59D040FD81E696FFAF3E
:10127000E6972E81E7962FAFE7973F81E8963FAF3D
:10128000E8978885E9968FAFE997E9962CAD3DAD53
:101290004EAD5FADE997C256DF4F9881CE59D04031
:1012A000EA969FAFEA97C356DF4FE881CD59D04009
:1012B000EB96EFAFEB97EC962FAEEC97ED963FAE3B
:1012C000ED97ED966CAD7DAD8EAD9FADED970E9427
:1012D000612AC256DF4FF881CE59D040EE96FFAF5B
:1012E000EE97C356DF4F2881CD59D040EF962FAFF0
:1012F000EF97C158DF4F2882CF57D040C058DF4FFB
:101300003882C058D040C358DF4F288139814A8184
:101310005B81CD57D040CF57DF4F6883C158D04055
:10132000CE57DF4F7883C258D040CD57DF4F8883E8
:10133000C358D040CC57DF4F9883C458D040CF57C4
:10134000DF4F688179818A819B81C158D0400E949A
:10135000612ACB57DF4F6883C558D040CA57DF4F4B
:101360007883C658D040C957DF4F8883C758D040CC
:10137000C857DF4F9883C858D040CB57DF4F2881DC
:1013800039814A815B81C558D0408D81C757DF4F75
:101390008883C958D0409E81C657DF4F9883CA586A
:1013A000D040EF81C557DF4FE883CB58D040F88558
:1013B000C457DF4FF883CC58D040C757DF4F688100
:1013C00079818A819B81C958D0400E9491286D8380
:1013D0007E838F83988720E030E040E05FE3C25651
:1013E000DF4F8881CE59D040C357DF4F8883CD5817
:1013F000D040C356DF4F9881CD59D040C257DF4F00
:101400009883CE58D040C157DF4F2882CF58D04064
:10141000C057DF4F3882C059D040C357DF4F688173
:1014200079818A819B81CD58D0400E94612AC25621
:10143000DF4F6883CE59D040C356DF4F7883CD59F4
:10144000D0401C01E0E8F1E0CB56DF4F2881398124
:10145000C559D040E217F30709F0F9CCC956DF4F60
:101460003881C759D040CF56DF4F3883C159D0405B
:10147000C856DF4F8881C859D040CE56DF4F888389
:10148000C259D040C756DF4F9881C959D040CD5678
:10149000DF4F9883C359D040C656DF4FE881CA5901
:1014A000D040CC56DF4FE883C459D040CF56DF4FF1
:1014B000688179818A819B81C159D040C256DF4FB2
:1014C0000FB6F894DEBF0FBECDBFDF91CF911F9155
:1014D0000F91FF90EF90DF90CF90BF90AF909F90D3
:1014E0008F907F906F905F904F903F902F900895D6
:1014F0002F923F924F925F926F927F928F929F9224
:10150000AF92BF92CF92DF92EF92FF920F931F9311
:10151000CF93DF93CDB7DEB7AA970FB6F894DEBFAF
:101520000FBECDBF8B018AA799A79B01AC01CA0151
:10153000B9010E9474296B011B0120E030E0A90170
:1015400028016AA479A4C301B2010E945C2A18167A
:101550001CF0C60101971C01B101032C000C880B83
:10156000990B0E94AC294B015C01A50194010983F0
:101570001A839AA59B83E9A5EC8369817A818B8183
:101580009C810E949028F62EE72EB82EA92E00E00E
:1015900011E0C12CD12CF0E8F9A78FE38983612CED
:1015A000712C812C8FE3982EFD82EE82BF82A8865B
:1015B0002D813E814F81588569867A868B869C86EF
:1015C00069857A858B859C850E94FD2887FF2AC0C6
:1015D0006D867E868F86988A2D853E854F855889B3
:1015E000F98AEA8ABB8AAC8A69897A898B899C895B
:1015F0000E949028F62EE72EB82EA92EF801208101
:10160000318142815381CD8ADE8AF9A5FF8B8981A0
:10161000888F6D897E898F89988D0E94612A6B01E0
:1016200089A7998320E030E040E05FE3698E7A8EFD
:101630008B8E9C8E698D7A8D8B8D9C8D0E94612AFC
:101640003B014C010C5F1F4F91E00034190709F07A
:10165000ABCF00E010E0121413040CF054C024E5EA
:1016600038EF4DE250E4CD8EDE8EE9A5EF8FF981A3
:10167000F8A36D8D7E8D8F8D98A10E94612A6B01DC
:1016800089A799830F5F1F4F2016310641F7CDA21E
:10169000DEA2E9A5EFA3F981F8A76DA17EA18FA134
:1016A00098A5AA960FB6F894DEBF0FBECDBFDF9106
:1016B000CF911F910F91FF90EF90DF90CF90BF904F
:1016C000AF909F908F907F906F905F904F903F90E2
:1016D0002F90089524E538EF4DE250E4C9A2DAA234
:1016E00089A58BA399819CA369A17AA18BA19CA1B7
:1016F0000E9402296B0189A799830F5F1F4F021572
:10170000130544F3C4CF319421943108F8CF6BED25
:101710007FE089E490E4089564E578EF8DE290E459
:1017200008954F925F926F927F928F929F92AF92A5
:10173000BF92CF92DF92EF92FF9229013A01A3016B
:1017400092014B015C01C501B4010E9491286B011B
:101750007C01C701B601FF90EF90DF90CF90BF9062
:10176000AF909F908F907F906F905F904F90089573
:101770004F925F926F927F928F929F92AF92BF92A1
:10178000CF92DF92EF92FF9229013A01A3019201D9
:101790004B015C01C501B4010E9490286B017C01E2
:1017A000C701B601FF90EF90DF90CF90BF90AF9050
:1017B0009F908F907F906F905F904F9008954F9281
:1017C0005F926F927F928F929F92AF92BF92CF92D1
:1017D000DF92EF92FF9229013A01A30192014B019E
:1017E0005C01C501B4010E94612A6B017C01C70143
:1017F000B601FF90EF90DF90CF90BF90AF909F9099
:101800008F907F906F905F904F9008954F925F926E
:101810006F927F928F929F92AF92BF92CF92DF9200
:10182000EF92FF9229013A01A30192014B015C0161
:10183000C501B4010E9402296B017C01C701B601F8
:10184000FF90EF90DF90CF90BF90AF909F908F90E0
:101850007F906F905F904F90089590580895B901D0
:10186000CA0108958F929F92AF92BF92CF92DF925A
:10187000EF92FF920F931F93CF93DF937C014B0165
:101880006C0188E1C822DD24C114D10421F0670174
:1018900087E0C822DD245601AA0CBB1CE4FA00270D
:1018A000112701F90A5F1F4F0A0D1B1DC8010E9475
:1018B000862BEC010097A1F0A80160E070E00E9487
:1018C0000A2FCD2849F08114910431F0A501B4010B
:1018D000CE0106960E94012FF982E8821B821A82AD
:1018E000CE01DF91CF911F910F91FF90EF90DF908C
:1018F000CF90BF90AF909F908F9008952F923F927E
:101900004F925F926F927F928F929F92AF92BF920F
:10191000CF92DF92EF92FF920F931F93CF93DF93BB
:10192000CDB7DEB7C256D1090FB6F894DEBF0FBEF1
:10193000CDBF6E966FAF6E976F967FAF6F97A09685
:101940008FAFA097A1969FAFA1972BED3FE049ECF9
:101950005FE36B017C01C701B6010E94FD28811184
:1019600033C020E030E0A901CA01B9010E94022978
:1019700063966FAF639764967FAF649765968FAFFA
:10198000659766969FAF669766966CAD7DAD8EAD9A
:101990009FAD6697CE59DF4F0FB6F894DEBF0FBEEE
:1019A000CDBFDF91CF911F910F91FF90EF90DF900E
:1019B000CF90BF90AF909F908F907F906F905F90EF
:1019C0004F903F902F90089520E431E068963FAF0C
:1019D0002EAF6897C12CD12C80E8E82E9FE3F92E1A
:1019E000612C712C20E8822E3FE33983A12CB12C8D
:1019F000912C512C69961FAE69976A961FAE6A9713
:101A00006B961FAE6B976C961FAE6C976E968FADF4
:101A10006E978A836F969FAD6F979B83A096EFAD6D
:101A2000A097EC83A196FFADA197FD832A813B810E
:101A30004C815D8169968FAD69978E836A969FAD63
:101A40006A979F836B96EFAD6B97E8876C96FFADB7
:101A50006C97F9876E817F81888599850E94FD2822
:101A600000E010E087FF3AC120E8A2962FAFA297CE
:101A70003FE36D963FAF6D976896EEADFFAD68970B
:101A800061917191819191916896FFAFEEAF6897E6
:101A9000A296FFADA297A396FFAFA3976D962FAD29
:101AA0006D97A2962FAFA2970A871B87FC872D8779
:101AB0002A853B854C855D850E94612A6E877F87DC
:101AC000888B998B2E853F854889598969968FAD7A
:101AD00069978A8B6A969FAD6A979B8B6B96EFADE1
:101AE0006B97EC8B6C96FFAD6C97FD8B6A897B894D
:101AF0008C899D890E94912869966FAF69976A9633
:101B00007FAF6A976B968FAF6B976C969FAF6C9712
:101B1000AE8ABF8A988E598E2E893F89488D598DFD
:101B2000A3969FADA397A2968FADA2970A8F1B8F06
:101B30009C8F8D8F6A8D7B8D8C8D9D8D0E94612AEF
:101B40006E8E7F8E88A2298129A32E8D3F8D48A17C
:101B500059A16AA37BA38CA39DA36AA17BA18CA19D
:101B60009DA10E94612A6EA37FA388A799A72EA199
:101B70003FA148A559A52D2C3E2C4F2CCAA6DBA66B
:101B8000ECA6FDA66AA57BA58CA59DA50E94902824
:101B90006D966FAF6D97D72E7C01CEA62FA638AA73
:101BA00049AA2EA53FA548A959A90AAB1BABA396E4
:101BB0008FADA3978CABA2969FADA2979DAB6AA960
:101BC0007BA98CA99DA90E94612A6EAA7FAA88AED2
:101BD000E981E9AF2EA93FA948AD59AD6AAF7BAF06
:101BE0008CAF9DAF6AAD7BAD8CAD9DAD0E94612A7F
:101BF0006EAF7FAF21968FAF219722969FAF22972E
:101C000022962CAD3DAD4EAD5FAD22972396AFAE83
:101C100023972496BFAE249725969FAE25972696A8
:101C20005FAE269726966CAD7DAD8EAD9FAD2697A7
:101C30000E9491285B01982E592E20E030E040E070
:101C40005FE327966FAE279728967FAE2897299651
:101C50008FAE2997F9812A96FFAF2A972A966CAD05
:101C60007DAD8EAD9FAD2A970E94612A3B01882EE3
:101C7000998320E831E068968EAD9FAD689728176C
:101C8000390741F56D963FAD6D972B963FAF2B977A
:101C90002C96DFAE2C972D96EFAE2D972E96FFAE9D
:101CA0002E972E962CAD3DAD4EAD5FAD2E972F9657
:101CB000AFAE2F976096BFAE609761969FAE61976B
:101CC00062965FAE629762966CAD7DAD8EAD9FAD54
:101CD00062974CCE6D96CFAC6D9798CE80E8A29669
:101CE0008FAFA2979FEB6D969FAF6D97C5CE2F924A
:101CF0003F924F925F926F927F928F929F92AF929C
:101D0000BF92CF92DF92EF92FF920F931F93CF93E8
:101D1000DF93CDB7DEB7C655D1090FB6F894DEBF55
:101D20000FBECDBF66966FAF669767967FAF67971A
:101D3000182F092F20E030E0A90166967FAD669745
:101D400067966FAD6797C80179836A839B838C839D
:101D500069817A818B819C810E94FD2820E030E09E
:101D6000A90187FF32C0CA01B9010E9402293B01C3
:101D70004C0162966FAE629763967FAE63976496EE
:101D80008FAE649765969FAE659765966CAD7DAD99
:101D90008EAD9FAD6597CA5ADF4F0FB6F894DEBF80
:101DA0000FBECDBFDF91CF911F910F91FF90EF90AC
:101DB000DF90CF90BF90AF909F908F907F906F906B
:101DC0005F904F903F902F90089566967FAD6697F5
:101DD00067966FAD6797C8017D836E839F83888701
:101DE0006D817E818F8198850E94FD28811509F47F
:101DF00059C120E030E040E85FE366967FAD66972A
:101E000067966FAD6797C80179876A879B878C87CC
:101E100069857A858B859C850E94FD28811509F44A
:101E200046C120E030E040E85FE366967FAD66970C
:101E300067966FAD6797C801C72ED62EE92EF82E8C
:101E4000C701B6010E94FD28F12CE12C90E8D92EA3
:101E50002FE3C22E87FFE9C020E030E040E05FE3DF
:101E6000FD86EE86DF86C88A6D857E858F8598899A
:101E70000E94612AF62EE72ED82EC92E9701C601A0
:101E8000398B2A8B9B8B8C8B29893A894B895C896E
:101E9000B7017D8B6E8B9F8B888F6D897E898F8933
:101EA000988D0E94612A698F7A8F8B8F9C8F298DE4
:101EB0003A8D4B8D5C8D66967FAD669767966FAD5C
:101EC0006797C8017D8F6E8F9F8F08A36D8D7E8D64
:101ED0008F8D98A10E94FD2818160CF0BDCF6F2C95
:101EE0007E2C8D2C9C2C80E1A82EB12C20E030E0A3
:101EF00040E05FE3FDAAEEAADFAAC8AE6DA97EA905
:101F00008FA998AD0E94612AF62EE72ED82EC92EF1
:101F100069AE7AAE8BAE9CAE29AD3AAD4BAD5CAD41
:101F2000B701C6017DAF6EAF9FAF21968FAF2197EE
:101F300021966CAD7DAD8EAD9FAD21970E9491280D
:101F40001B012C0122966FAF229723963FAE239759
:101F500024968FAF249725965FAE259725962CADB6
:101F60003DAD4EAD5FAD259726966FAF2697279670
:101F70003FAE279728968FAF289729965FAE29976F
:101F800029966CAD7DAD8EAD9FAD29970E94612ADB
:101F90002A966FAF2A972B967FAF2B972C968FAFF1
:101FA0002C972D969FAF2D972D962CAD3DAD4EAD18
:101FB0005FAD2D9766967FAD669767966FAD679715
:101FC000C8012E967FAF2E972F966FAF2F976096F2
:101FD0009FAF609761960FAF619761966CAD7DADD5
:101FE0008EAD9FAD61970E945C2A87FD02C03101D2
:101FF000420181E0A81AB10809F078CFBACEF9A25F
:10200000EAA2DBA2CCA229A13AA14BA15CA1FDA22C
:10201000EEA2DFA2C8A66DA17EA18FA198A50E9405
:102020009128F62EE72ED82EC92E9701C601432EF1
:102030005E2C692E7C2CA3019201B70179A7EAA638
:102040009BA7CCA669A57AA58BA59CA50E94612A11
:102050004B015C01A501940166967FAD669767967A
:102060006FAD6797C8017DA76EA79FA708AB6DA549
:102070007EA58FA598A90E945C2A87FFC0CF20E08B
:1020800030E040E05FE3B701C60179ABEAAA9BAB61
:10209000CCAA69A97AA98BA99CA90E94612A3B01B3
:1020A0004C0121CF612C712C812C912C62CE669633
:1020B0006FAC669767967FAC6797812E902E59CE4E
:1020C0004F925F926F927F928F929F92AF92BF9248
:1020D000CF92DF92EF92FF920F931F93CF93DF93F4
:1020E000CDB7DEB72D970FB6F894DEBF0FBECDBFCC
:1020F0008B018D87998320E030E0A9012B013C0101
:10210000C301B2010E94FD2887FF26C020E030E015
:10211000A901CA01B9010E94022969877A878B87C0
:102120009C8769857A858B859C852D960FB6F8945A
:10213000DEBF0FBECDBFDF91CF911F910F91FF90FA
:10214000EF90DF90CF90BF90AF909F908F907F9057
:102150006F905F904F90089520E03FEF4FE757E476
:102160004801AD84B980C501B4010E945C2A1816EB
:1021700044F420E030E0A90160E070E080E89FE3F3
:10218000CACF6801ED84F980C701B6010E947B299E
:10219000C12CD12C7601C394812C912C54018394B1
:1021A0002B01612C712CC501B4014C145D046E042B
:1021B0007F0418F40E94AA29B0CFA70196010E94BB
:1021C000EF2A00E20E94532B29833A834B835C83DE
:1021D0006D837E838F83988789819A81AB81BC814F
:1021E000892B8A2B8B2B29F6A5019401C701B601F7
:1021F0000E94CE2A4B015C019FEFC91AD90AE90A55
:10220000F90AD1CF2F923F924F925F926F927F92B5
:102210008F929F92AF92BF92CF92DF92EF92FF92F6
:102220000F931F93CF93DF93CDB7DEB7CA56D10973
:102230000FB6F894DEBF0FBECDBF1B01AB968FAFBC
:10224000AB97AA969FAFAA9720E030E0A9012B0197
:102250003C01C301B2010E94FD28812C912C18166B
:102260000CF456C020E030E0A901CA01B9010E9477
:1022700002298B018D839983A6960FAFA697A79607
:102280001FAFA797ED81A896EFAFA897F981A99600
:10229000FFAFA997A9966CAD7DAD8EAD9FADA99707
:1022A000C659DF4F0FB6F894DEBF0FBECDBFDF912A
:1022B000CF911F910F91FF90EF90DF90CF90BF9043
:1022C000AF909F908F907F906F905F904F903F90D6
:1022D0002F9008952FEF821A920A24E538EF4DE2ED
:1022E00050E429823A82AB968FADAB978B83AA9646
:1022F0009FADAA979C8369817A818B819C810E9482
:1023000002291B01AB968FAFAB97AA969FAFAA97F6
:1023100024E538EF4DE250E42D823E82AB96AFAD1E
:10232000AB97AF83AA96BFADAA97B8876D817E8120
:102330008F8198850E945C2A87FFCCCF20E030E017
:1023400040E85FE32D863E86AB969FADAB979F87B7
:10235000AA96AFADAA97A88B6D857E858F85988943
:102360000E94FD2887FDD0C180E490E00E94862B6A
:102370005C019A838983E0E0F1E0FA87E9879C01B8
:10238000205C3F4F3E832D838C01D8011D921D920E
:102390001D921D928D01E985FA85419051906190C1
:1023A0007190FA87E987298A3A8AAB96FFADAB9795
:1023B000FB8BAA962FADAA972C8B29893A894B893A
:1023C0005C89C301B2010E94FD2887FF28C01D8AD5
:1023D0001E8A30E83F8B8FE3888FF8018D899E89B4
:1023E000AF89B88DB293A29392938293A301920185
:1023F000298E3A8EAB969FADAB979B8FAA96AFADC9
:10240000AA97AC8F698D7A8D8B8D9C8D0E94022945
:102410001B01AB968FAFAB97AA969FAFAA97ED81A2
:10242000FE81E017F10709F0B0CF20E030E040E88E
:102430005FE32D8E3E8EAB96FFADAB97FF8FAA96D6
:102440008FADAA9788A36D8D7E8D8F8D98A10E94E8
:1024500090288B018D87998720E030E040E85EE38B
:1024600069A31AA38BA39CA369A17AA18BA19CA1A8
:102470000E94612A6B017C01A701960160E070E077
:1024800080E89FE30E9490286B017C0120E030E00F
:1024900040E450E40DA31EA39D859FA3A985A8A792
:1024A0006DA17EA18FA198A50E94022969A77AA794
:1024B0008BA79CA729A53AA54BA55CA5CDA6DEA612
:1024C000EFA6F8AA6DA57EA58FA598A90E94612AFE
:1024D00020E030E040E85FE369AB7AAB8BAB9CABCC
:1024E00069A97AA98BA99CA90E9491286B017C01FA
:1024F00020E030E040E05FE30DAB1EABBD85BFAB3D
:10250000E985E8AF6DA97EA98FA998AD0E94612ADF
:1025100069AF7AAF8BAF9CAF29AD3AAD4BAD5CAD37
:10252000CDAEDEAEEFAE2196FFAE219721966CAD1B
:102530007DAD8EAD9FAD21970E94612A22966FAF2F
:10254000229723967FAF239724968FAF24972596C3
:102550009FAF259725962CAD3DAD4EAD5FAD259730
:1025600060E070E080E89FE30E94902826966FAFBD
:10257000269727967FAF279728968FAF289729967B
:102580009FAF299729962CAD3DAD4EAD5FAD2997F4
:102590002A960FAF2A972B961FAF2B97FD852C9667
:1025A000FFAF2C9789852D968FAF2D972D966CAD0B
:1025B0007DAD8EAD9FAD2D970E94612A8B018D87D9
:1025C0009987C12CD12CE12C8FE3F82EA981BA81F7
:1025D0006D917D918D919D91BA83A9832E96CFAEF9
:1025E0002E972F96DFAE2F976096EFAE609761968D
:1025F000FFAE619761962CAD3DAD4EAD5FAD61977D
:102600000E94612A62966FAF629763967FAF63976D
:1026100064968FAF649765969FAF659765962CAD6E
:102620003DAD4EAD5FAD659766960FAF6697679609
:102630001FAF6797BD856896BFAF6897E9856996B4
:10264000EFAF699769966CAD7DAD8EAD9FAD699723
:102650000E9491288B018D87998720E030E040E02F
:102660005FE36A96CFAE6A976B96DFAE6B976C9618
:10267000EFAE6C976D96FFAE6D976D966CAD7DADC0
:102680008EAD9FAD6D970E94612A6B017C012D81FB
:102690003E8189819A812817390709F097CFB401C3
:1026A000990C880B990B0E94AC296E960FAF6E9710
:1026B0006F961FAF6F97AD85A096AFAFA097B98506
:1026C000A196BFAFA197A1962CAD3DAD4EAD5FAD2C
:1026D000A197A2966FAFA297A3967FAFA397A49658
:1026E0008FAFA497A5969FAFA597A5966CAD7DAD2E
:1026F0008EAD9FADA5970E9491288B018D83998304
:10270000C5010E941C2CB8CDE1E08E1A910824E589
:1027100038EF4DE250E429863A86AB96FFADAB9791
:10272000FB87AA968FADAA978C8769857A858B855A
:102730009C850E94612A1B01AB968FAFAB97AA962E
:102740009FAFAA97FBCD8F929F92AF92BF92CF92ED
:10275000DF92EF92FF920F931F938B019C01C901AF
:10276000B8010E9402112EE83DE543E150E44B011F
:102770005C01C501B4010E9402296B017C01C70103
:10278000B6011F910F91FF90EF90DF90CF90BF9017
:10279000AF909F908F9008952F923F924F925F92AB
:1027A0006F927F928F929F92AF92BF92CF92DF9261
:1027B000EF92FF920F931F93CF93DF93CDB7DEB7C6
:1027C00060970FB6F894DEBF0FBECDBF6D877E87D2
:1027D0001C018901488B5F8720E030E0A9012B01B3
:1027E0003C01C301B2010E94FD28811509F449C0D2
:1027F00020E030E0A9014801A888BF84C501B401E8
:102800000E94FD28811509F458C049825A822B8202
:102810003C8269817A818B819C810E9402116B01CB
:102820007C01A70196010D831E8388898F838F8584
:1028300088876D817E818F8198850E94612A698752
:102840007A878B879C8769857A858B859C8560963E
:102850000FB6F894DEBF0FBECDBFDF91CF911F91B1
:102860000F91FF90EF90DF90CF90BF90AF909F902F
:102870008F907F906F905F904F903F902F900C942F
:10288000780A60E070E0CB0160960FB6F894DEBF86
:102890000FBECDBFDF91CF911F910F91FF90EF90B1
:1028A000DF90CF90BF90AF909F908F907F906F9070
:1028B0005F904F903F902F90089560E070E080E827
:1028C0009FE3E2CF2F923F924F925F926F927F925F
:1028D0008F929F92AF92BF92CF92DF92EF92FF9230
:1028E0000F931F93CF93DF93CDB7DEB7C456D109B3
:1028F0000FB6F894DEBF0FBECDBFA0966FAFA09706
:10290000A1967FAFA197A2968FAFA297A3969FAFF4
:10291000A3976E964FAF6E976F965FAF6F9780E4F9
:1029200091E069969FAF8EAF6997612C712C90E80A
:102930009983EFE3EA83812C912CA12CB12CC12C3B
:10294000D12C80E8E82E9FE3F92E6A961FAE6A9795
:102950006B961FAE6B976C961FAE6C976D961FAE05
:102960006D976A96FFAD6A97FB836B962FAD6B9759
:102970002C836C968FAD6C978D836D969FAD6D9704
:102980009E832B813C814D815E81A096EFADA09707
:10299000EF83A196FFADA197F887A2968FADA2977E
:1029A0008987A3969FADA3979A876F81788589853C
:1029B0009A850E945C2A00E010E018160CF052C1C3
:1029C000E0E8A596EFAFA597FFE3A496FFAFA49725
:1029D0006996EEADFFAD6997619171918191919189
:1029E0006996FFAFEEAF69970B871C87A596FFAD81
:1029F000A597FD87A4962FADA4972E872B853C85A0
:102A00004D855E850E94612A6F87788B898B9A8BB2
:102A10002F85388949895A896A968FAD6A978B8B39
:102A20006B969FAD6B979C8B6C96EFAD6C97ED8B17
:102A30006D96FFAD6D97FE8B6B897C898D899E8924
:102A40000E9491286A966FAF6A976B967FAF6B97DB
:102A50006C968FAF6C976D969FAF6D978F8A988E9F
:102A6000A98EBA8E2F89388D498D5A8DA5969FAD26
:102A7000A597A4968FADA4970B8F1C8F9D8F8E8FDB
:102A80006B8D7C8D8D8D9E8D0E94612A6F8E78A2BC
:102A9000298129A3EA81EAA32F8D38A149A15AA14E
:102AA0006BA37CA38DA39EA36BA17CA18DA19EA1F2
:102AB0000E94612A6FA378A789A79AA72FA138A59A
:102AC00049A55AA516012701CBA63CA6EDA65EA6F0
:102AD0006BA57CA58DA59EA50E9490286B017C010D
:102AE0002FA638AA49AA5AAA2FA538A949A95AA98E
:102AF0000BAB1CABA596FFADA597FDABA4968FAD18
:102B0000A4978EAB6BA97CA98DA99EA90E94612A6E
:102B10006FAA78AEE981E9AFFA81FAAF2FA938AD93
:102B200049AD5AAD6BAF7CAF8DAF9EAF6BAD7CAD99
:102B30008DAD9EAD0E94612A6FAF21967FAF219728
:102B400022968FAF229723969FAF239723962CAD83
:102B50003DAD4EAD5FAD239724968FAE249725965D
:102B60009FAE25972696AFAE26972796BFAE27979E
:102B700027966CAD7DAD8EAD9FAD27970E949128B5
:102B80004B015C0120E030E040E05FE328966FAE4F
:102B9000289729967FAE299789812A968FAF2A9701
:102BA0009A812B969FAF2B972B966CAD7DAD8EADFA
:102BB0009FAD2B970E94612A3B0189839A83699676
:102BC000EEADFFAD6997E058F14009F0CACE6F96BF
:102BD0008EAD9FAD6F972EEE34E74BE15FE3892B0F
:102BE00009F449C02C96CFAE2C972D96DFAE2D97C9
:102BF0002E96EFAE2E972F96FFAE2F972F966CAD99
:102C00007DAD8EAD9FAD2F970E94612A64966FAF08
:102C1000649765967FAF659766968FAF6697679660
:102C20009FAF679767966CAD7DAD8EAD9FAD679793
:102C3000CC59DF4F0FB6F894DEBF0FBECDBFDF918A
:102C4000CF911F910F91FF90EF90DF90CF90BF90A9
:102C5000AF909F908F907F906F905F904F903F903C
:102C60002F90089520E8A5962FAFA5978FEBA496F7
:102C70008FAFA497ADCE60968FAE609761969FAEF2
:102C800061976296AFAE62976396BFAE63976396A5
:102C90006CAD7DAD8EAD9FAD6397B6CF0F931F9397
:102CA00040E050E08B019C01C901B8011F910F91D8
:102CB0000C9462140F931F9341E050E08B019C0130
:102CC000C901B8011F910F910C946214CF93DF9347
:102CD000EC01009739F00E947516CE01DF91CF917B
:102CE0000C941C2CDF91CF910895CF93DF93EC01CE
:102CF000892B51F1E881F981EF71FF273997EF3086
:102D0000F10510F5EC55FF4C0C94DE2A8A899B895D
:102D10000E946616888999890E9466168E859F850D
:102D20000E9466168C859D850E9466168A859B8505
:102D30000E946616888599850E9466168E819F81FD
:102D4000DF91CF910C946616DF91CF9108952F9269
:102D50003F924F925F926F927F928F929F92AF922B
:102D6000BF92CF92DF92EF92FF920F931F93CF9378
:102D7000DF9300D000D0CDB7DEB78B839C8388E192
:102D800090E0AB81BC8115969C938E93149712961C
:102D9000BA83A983EB81FC81E280F380D7018C9117
:102DA00081111BC08AE190E0958384830F900F907E
:102DB0000F900F90DF91CF911F910F91FF90EF90A7
:102DC000DF90CF90BF90AF909F908F907F906F904B
:102DD0005F904F903F902F90089590ED980F9A300C
:102DE00010F08E32B9F469817A81C7010E94AD2C4E
:102DF000EB81FC8166837783808791872EE130E0C9
:102E000035832483AB81BC8114968D919C91489726
:102E100009F2CCCF082E000C990B0E94CD2E570141
:102E2000892BF1F4C7010196AB81BC8113969C9369
:102E30008E931297D701EC91E0330CF0D4C0E032BE
:102E40000CF0C2C0EB300CF0CAC0E930DCF689E10E
:102E500090E004C1AB81BC811396BC92AE921297F4
:102E60004501F50171905F01C72C072C000CDD08AE
:102E7000C6010E94CD2E8C01892B61F7F0E3CF1A99
:102E8000D1082AE0C216D10428F33FE5731611F3E6
:102E900034016E187F08AB81BC811C962D903C904C
:102EA0001D972114310431F01E960D911C910115CE
:102EB0001105B9F53FE0832E912C6401C01AD10AA7
:102EC000D594C794C00ED11EC60123E0880F991F68
:102ED0002A95E1F79C0128573E4F1901D901AD9081
:102EE000BC90A301B501C7010E94182F2C01892BAA
:102EF00071F5F501E60DF71D8081E82FFF27E195BB
:102F00000CF4F0952F01811122C02114310479F5C0
:102F100089E190E0AB81BC8115969C938E931497C8
:102F200071CFF101C080D180A301B601C7010E9419
:102F3000182F892B31F4F601E60DF71D80818115DC
:102F4000B1F0F8E02F0E311C01501109B0CF14146C
:102F5000150444F486010F5F1F4F801691060CF094
:102F6000ACCFD6CF4601F1E08F1A9108F6CFF10130
:102F7000848195819C012F71332784FD18C0AC0199
:102F800048715527452B29F48FE190E0232B09F058
:102F900039CFAB81BC8115969C938E931497F10128
:102FA0008281938117969C938E9316972BCF2051F5
:102FB00031092830310508F025CF26813781EB8192
:102FC000FC8133872287E5CFE052E03108F03FCF24
:102FD0000E2E000CFF0BED54FF4C0C94DE2AED304E
:102FE00009F410CF34CFEE3509F031CF80E290E014
:102FF000EB81FC81958384838CEC93E108C080E2B3
:1030000090E0EB81FC819583848381E99BE0978349
:103010008683F8CE80E290E0AB81BC8115969C93CC
:103020008E93149788EB9BE0BDCF80E290E0EB811C
:10303000FC81958384838FED9BE0E9CF80E290E073
:10304000AB81BC8115969C938E93149786E09CE08F
:10305000A9CF8CE190E05ECF8DE190E0EB81FC8127
:1030600095838483CFCE8BE190E054CF8F929F9253
:10307000AF92BF92CF92DF92EF92FF920F931F9386
:10308000CF93DF9300D000D0CDB7DEB77C010E9494
:10309000CF1A8C01892BE9F0F70184819581809703
:1030A000D1F486809780F1E98F16FBE09F0629F026
:1030B00088EB88168BE0980671F4C7010E94A7166A
:1030C000C7010E94CF1A6C010097B9F4C8010E9491
:1030D000661600E010E0C8010F900F900F900F905F
:1030E000DF91CF911F910F91FF90EF90DF90CF90E4
:1030F000BF90AF909F908F9008951A8309839C830F
:103100008B83BE016F5F7F4F8AE290E00E94320C9A
:10311000009721F4C6010E946616D8CFFC01938265
:1031200082828C01B9CF8F929F92AF92BF92CF9241
:10313000DF92EF92FF920F931F93CF93DF9300D014
:1031400000D0CDB7DEB77C010E9436188C018FE22B
:10315000882E8CE0982E0115110549F500E010E04D
:10316000C8010F900F900F900F90DF91CF911F919A
:103170000F91FF90EF90DF90CF90BF90AF909F9016
:103180008F9008951A8309839C838B83BE016F5FA0
:103190007F4F8AE290E00E94320C009721F4C60132
:1031A0000E94661612C0FC01938282828C01F70194
:1031B000848195814B97A1F6C7010E94A716C7018C
:1031C0000E9436186C010097E9F6C8010E94661645
:1031D000C5CF8F929F92AF92BF92CF92DF92EF9224
:1031E000FF920F931F93CF93DF938C01DC01149612
:1031F000ED90FC90F701EF71FF273897E831F1056A
:1032000008F0F5C0ED53FF4C0C94DE2A60E070E04E
:1032100081E090E00E94320CEC01892B61F0F80112
:1032200086819781A085B1858A839B83AC83BD838A
:10323000C8010E94A716CE01DF91CF911F910F9177
:10324000FF90EF90DF90CF90BF90AF909F908F90C6
:10325000089560E070E080E090E00E94320CEC01A4
:10326000892B49F3D80116968D919C919B838A8373
:10327000DFCF60E070E0C7010E94320CEC01892BC7
:1032800009F446C0F801868197819B838A83E4FE16
:1032900004C0828593859F838E83C8010E94A716F0
:1032A000D80114968D919C914C9729F6C8010E94E3
:1032B000A716F801848195814D9709F4B9CF89E16A
:1032C00090E095838483B7CF60E070E0C7010E94EF
:1032D000320CEC01892BE1F0D80116968D919C916E
:1032E00017979B838A83E4FE05C01A968D919C9163
:1032F00099878887C8010E94A716C8010E94141ADE
:103300009F838E83892B09F096CFCE010E9466168B
:10331000C0E0D0E090CF6701B8E1CB22DD24C1143A
:10332000D10421F06701E7E0CE22DD2460E070E007
:10333000C7010E94320CEC01892B51F3D80116967B
:103340008D919C9117979B838A83E4FE0BC0F601B5
:103350003396EE0FFF1FEC0FFD1F1A968D919C9177
:1033600091838083C8010E94A716F801848195810A
:103370004E01F6E08F0E911CE12CF12C4C9759F088
:1033800089E190E0D80115969C938E93149753CFC2
:10339000FFEFEF1AFF0AEC14FD0499F0C8010E9438
:1033A000A716C8010E943618F401819391934F012A
:1033B000892B09F4AACFD80114968D919C914B9733
:1033C00039F3F801848195814D97D1F681E0C81ACF
:1033D000D108CE14DF04A1F62BCF0E94A716C80196
:1033E0000E949318EC01892B09F063CF91CF60E024
:1033F00070E080E090E00E94320CEC01892B09F42F
:103400001ACF89E190E0D80115969C938E9314977A
:1034100020E030E0A901CA01B9010E9402296A83B3
:103420007B838C839D8307CFAF92BF92CF92DF9235
:10343000EF92FF920F931F93CF93DF9300D0CDB7FE
:10344000DEB78C01AA24A394B12CF8018481958164
:10345000809791F0AA94AB28F9F4C8010F900F90CF
:10346000DF91CF911F910F91FF90EF90DF90CF9060
:10347000BF90AF900C94E91886819781FBE0813969
:103480009F0731F0885B9B4029F7B194A194B10864
:10349000C8010E94A716D9CFC8010E94E9186C0183
:1034A000009779F09A838983BE016F5F7F4F89E22D
:1034B00090E00E94320C7C01892B31F4C6010E94FD
:1034C0006616E12CF12C05C08DE29CE0F701938398
:1034D0008283C7010F900F90DF91CF911F910F91C1
:1034E000FF90EF90DF90CF90BF90AF9008958F92B4
:1034F0009F92AF92BF92CF92DF92EF92FF920F9383
:103500001F93CF93DF9300D000D0CDB7DEB77C01FF
:103510000E94141A8C01892BC1F0F70184819581D6
:103520008097A9F486809780FCEC8F16F3E19F06C4
:1035300071F4C7010E94A716C7010E94141A6C01FA
:103540000097B9F4C8010E94661600E010E0C801B7
:103550000F900F900F900F90DF91CF911F910F91CF
:10356000FF90EF90DF90CF90BF90AF909F908F90A3
:1035700008951A8309839C838B83BE016F5F7F4FFD
:103580008AE290E00E94320C009721F4C6010E946A
:103590006616D8CFFC01938282828C01BECF8F92B7
:1035A0009F92AF92BF92CF92DF92EF92FF920F93D2
:1035B0001F93CF93DF9300D000D0CDB7DEB77C014F
:1035C0000E94771A8C01892BE9F0F701848195819B
:1035D0008097D1F486809780FFED8F16FBE09F06E1
:1035E00029F086E088168CE0980671F4C7010E94E5
:1035F000A716C7010E94771A6C010097B9F4C80199
:103600000E94661600E010E0C8010F900F900F9026
:103610000F90DF91CF911F910F91FF90EF90DF906E
:10362000CF90BF90AF909F908F9008951A83098399
:103630009C838B83BE016F5F7F4F8AE290E00E9484
:10364000320C009721F4C6010E946616D8CFFC0107
:10365000938282828C01B9CF2F923F924F925F92D8
:103660006F927F928F929F92AF92BF92CF92DF9292
:10367000EF92FF920F931F93CF93DF93CDB7DEB7F7
:10368000CC5AD1090FB6F894DEBF0FBECDBFC555D9
:10369000DF4F8883CB5AD040C455DF4F9883CC5A34
:1036A000D040C555DF4F28813981CB5AD040232BDC
:1036B00041F420E030E0A901CA01B9010E940229C9
:1036C00022C0C555DF4FA881B981CB5AD040ED91BA
:1036D000FC91CF018F719927E4FD4BC09F012871A8
:1036E0003327232B09F07AC0009709F469C00197AA
:1036F00001F7C555DF4FE881F981CB5AD04062818F
:10370000738184819581C955DF4F6883C75AD04042
:10371000C855DF4F7883C85AD040C755DF4F8883DC
:10372000C95AD040C655DF4F9883CA5AD040C955B0
:10373000DF4F688179818A819B81C75AD040C45507
:10374000DF4F0FB6F894DEBF0FBECDBFDF91CF9134
:103750001F910F91FF90EF90DF90CF90BF90AF90AF
:103760009F908F907F906F905F904F903F902F90A1
:1037700008954097089708F09CCFC555DF4FA88162
:10378000B981CB5AD04012960D90BC91A02DBA832E
:10379000A983CF0188719927892B09F403C3E770A6
:1037A000FF273197E730F10508F0FCC2E552FF4CE6
:1037B000C555DF4FA881B981CB5AD0400C94DE2A81
:1037C000C555DF4FA881B981CB5AD0401296ED91F3
:1037D000FC91608171818281938195CFC555DF4FC6
:1037E000A881B981CB5AD04012960D90BC91A02DE2
:1037F000BA83A983E770FF273197E730F10550F4CA
:10380000EE51FF4CC555DF4FA881B981CB5AD0404E
:103810000C94DE2AE981FA81C455DF4F0FB6F89483
:10382000DEBF0FBECDBFDF91CF911F910F91FF90F3
:10383000EF90DF90CF90BF90AF909F908F907F9050
:103840006F905F904F903F902F90099416968D91B6
:103850009C910E942C1B6B837C838D839E836B8148
:103860007C818D819E81E981FA81C455DF4F0FB63D
:10387000F894DEBF0FBECDBFDF91CF911F910F91A6
:10388000FF90EF90DF90CF90BF90AF909F908F9080
:103890007F906F905F904F903F902F900994189673
:1038A0008D919C910E942C1B7B018C01C555DF4F93
:1038B000E881F981CB5AD040868197810E942C1BE8
:1038C000EF82F88609871A872F81388549855A85BE
:1038D0006B877C878D879E876B857C858D859E8594
:1038E000E981FA81C455DF4F0FB6F894DEBF0FBEF1
:1038F000CDBFDF91CF911F910F91FF90EF90DF909F
:10390000CF90BF90AF909F908F907F906F905F907F
:103910004F903F902F9009941A968D919C910E9400
:103920002C1B4B017C01C555DF4FE881F981CB5A37
:10393000D040808591850E942C1B5B016C01C55590
:10394000DF4FA881B981CB5AD04016968D919C91BA
:103950000E942C1B8F86988AE98AFA8AEF84F8885D
:1039600009891A89AB8ABC8ACD8ADE8A2B893C896F
:103970004D895E896F8B788F898F9A8F6F89788D4B
:10398000898D9A8DE981FA810995BDCE1C968D911C
:103990009C910E942C1BF62ED72EC82EB92EC555F1
:1039A000DF4FE881F981CB5AD040828593850E9410
:1039B0002C1BE62E572E482E192FC555DF4FA881F8
:1039C000B981CB5AD04018968D919C910E942C1BA6
:1039D0003B014C01C555DF4FE881F981CB5AD040FE
:1039E000868197810E942C1BFB8EDC8ECD8EBE8E35
:1039F000AB8CBC8CCD8CDE8CEF8E58A249A21AA366
:103A0000EF8CF8A009A11AA16BA27CA28DA29EA2A4
:103A10002BA13CA14DA15EA16FA378A789A79AA76E
:103A20006FA178A589A59AA5E981FA8109956BCE40
:103A30001E968D919C910E942C1B1B01082F492ED4
:103A4000C555DF4FE881F981CB5AD04084859585F3
:103A50000E942C1BD62EC72EB82EA92EC555DF4F7F
:103A6000A881B981CB5AD0401A968D919C910E9421
:103A70002C1B162FF72EE82E592EC555DF4FE88147
:103A8000F981CB5AD040808591850E942C1B3B0147
:103A90004C01C555DF4FA881B981CB5AD04016964D
:103AA0008D919C910E942C1B4F920F933F922F92CD
:103AB000DBA6CCA6BDA6AEA6ABA4BCA4CDA4DEA4BA
:103AC0001FA7F8AAE9AA5AAAEFA4F8A809A91AA94F
:103AD0006BAA7CAA8DAA9EAA2BA93CA94DA95EA976
:103AE0006FAB78AF89AF9AAF6FA978AD89AD9AAD5A
:103AF000E981FA8109950F900F900F900F9003CEF6
:103B000050968D919C910E942C1B6B837F831C018E
:103B1000C555DF4FE881F981CB5AD040868597851E
:103B20000E942C1B6B877F87482EA92EC555DF4F1F
:103B3000A881B981CB5AD0401C968D919C910E944E
:103B40002C1B062FD72EC82EB92EC555DF4FE88166
:103B5000F981CB5AD040828593850E942C1B562E2A
:103B6000E72EF82E192FC555DF4FA881B981CB5A02
:103B7000D04018968D919C910E942C1B3B014C01CA
:103B8000C555DF4FE881F981CB5AD04086819781B6
:103B90000E942C1B3F922F92FF81FF932B812F932A
:103BA000AF924F923F853F93AB85AF930BAFDCAEA7
:103BB000CDAEBEAEABACBCACCDACDEAC5FAE219698
:103BC000EFAE21972296FFAE229723961FAF239741
:103BD0002396ECACFDAC0EAD1FAD239724966FAED3
:103BE000249725967FAE259726968FAE2697279603
:103BF0009FAE279727962CAD3DAD4EAD5FAD279775
:103C000028966FAF289729967FAF29972A968FAF6E
:103C10002A972B969FAF2B972B966CAD7DAD8EADD3
:103C20009FAD2B97E981FA8109950FB6F894DEBF15
:103C30000FBECDBF68CD52968D919C910E942C1BDA
:103C40006B837F838B879F87C555DF4FE881F98121
:103C5000CB5AD040808991890E942C1B6B8B7F8B23
:103C60008B8F392EC555DF4FA881B981CB5AD040F3
:103C70001E968D919C910E942C1B6F8F272E2C01DC
:103C8000C555DF4FE881F981CB5AD04084859585B1
:103C90000E942C1BD62EC72EB82EA92EC555DF4F3D
:103CA000A881B981CB5AD0401A968D919C910E94DF
:103CB0002C1B7B018C01C555DF4FE881F981CB5A64
:103CC000D040808591850E942C1B3B014C01C5553D
:103CD000DF4FA881B981CB5AD04016968D919C9127
:103CE0000E942C1BBF85BF93EB85EF93FF81FF9351
:103CF0002B812F933F923B8D3F93AF89AF93BB892D
:103D0000BF935F924F922F92EF8DEF932C96DFAE81
:103D10002C972D96CFAE2D972E96BFAE2E972F9621
:103D2000AFAE2F972F96ACACBDACCEACDFAC2F971F
:103D30006096EFAE60976196FFAE619762960FAFA7
:103D4000629763961FAF63976396ECACFDAC0EADC4
:103D50001FAD639764966FAE649765967FAE659767
:103D600066968FAE669767969FAE679767962CADFF
:103D70003DAD4EAD5FAD679768966FAF689769963A
:103D80007FAF69976A968FAF6A976B969FAF6B9775
:103D90006B966CAD7DAD8EAD9FAD6B97E981FA8171
:103DA000099543CFC555DF4FE881F981CB5AD04003
:103DB00086819781E981FA81C455DF4F0FB6F89467
:103DC000DEBF0FBECDBFDF91CF911F910F91FF904E
:103DD000EF90DF90CF90BF90AF909F908F907F90AB
:103DE0006F905F904F903F902F90099416968D9111
:103DF0009C910E942C1B6C966FAF6C976D967FAF59
:103E00006D976E968FAF6E976F969FAF6F976F9609
:103E10004CAD5DAD6EAD7FAD6F97C555DF4FE881A1
:103E2000F981CB5AD04080859185E981FA81C455CA
:103E3000DF4F0FB6F894DEBF0FBECDBFDF91CF913D
:103E40001F910F91FF90EF90DF90CF90BF90AF90B8
:103E50009F908F907F906F905F904F903F902F90AA
:103E6000099418968D919C910E942C1B5B018C01EA
:103E7000C555DF4FE881F981CB5AD04086819781C3
:103E80000E942C1BA096AFAEA097A196BFAEA197A3
:103E9000A2960FAFA297A3961FAFA397A3960CADC0
:103EA0001DAD2EAD3FADA397A4966FAFA497A59679
:103EB0007FAFA597A6968FAFA697A7969FAFA79718
:103EC000A7964CAD5DAD6EAD7FADA797C555DF4FE5
:103ED000A881B981CB5AD0401A968D919C91E981E5
:103EE000FA81099510CC1A968D919C910E942C1BF9
:103EF0006B017C01C555DF4FE881F981CB5AD04079
:103F0000808591850E942C1B4B015C01C555DF4FBC
:103F1000A881B981CB5AD04016968D919C910E9470
:103F20002C1BA896CFAEA897A996DFAEA997AA9604
:103F3000EFAEAA97AB96FFAEAB97AB96CCACDDAC31
:103F4000EEACFFACAB97AC968FAEAC97AD969FAE98
:103F5000AD97AE96AFAEAE97AF96BFAEAF97AF96FA
:103F60000CAD1DAD2EAD3FADAF972B013C01B301A4
:103F7000A201C555DF4FE881F981CB5AD040848535
:103F80009585E981FA810995BECB1C968D919C910E
:103F90000E942C1B162FB72EA82E992EC555DF4F29
:103FA000E881F981CB5AD040828593850E942C1BF1
:103FB000F62EE72ED82EC92EC555DF4FA881B98120
:103FC000CB5AD04018968D919C910E942C1B562E56
:103FD000472E3C01C555DF4FE881F981CB5AD040CF
:103FE000868197810E942C1BE0961FAFE097E19697
:103FF000BFAEE197E296AFAEE297E3969FAEE3974E
:10400000E3968CAC9DACAEACBFACE397E496FFAE50
:10401000E497E596EFAEE597E696DFAEE697E7968E
:10402000CFAEE797E796CCACDDACEEACFFACE79754
:10403000E8965FAEE897E9964FAEE997EA966FAEDD
:10404000EA97EB967FAEEB97EB960CAD1DAD2EADE0
:104050003FADEB97EC966FAFEC97ED967FAFED979A
:10406000EE968FAFEE97EF969FAFEF97EF964CAD32
:104070005DAD6EAD7FADEF97C555DF4FA881B981BE
:10408000CB5AD0401E968D919C91E981FA81099579
:104090003ACB1E968D919C910E942C1B1B01482EA1
:1040A000092FC555DF4FE881F981CB5AD04084856F
:1040B00095850E942C1BB62EA72E982E892EC555AD
:1040C000DF4FA881B981CB5AD0401A968D919C912F
:1040D0000E942C1BF62EE72ED82EC92EC555DF4F79
:1040E000E881F981CB5AD040808591850E942C1BB4
:1040F000662E572E782E192FC555DF4FA881B9810E
:10410000CB5AD04016968D919C910E942C1BC55580
:10411000DF4FA881B981CB5AD0405096ED91FC91E8
:104120000F934F923F922F92C158DF4FB882CF57D3
:10413000D040C058DF4FA882C058D040CF57DF4F83
:104140009882C158D040CE57DF4F8882C258D040A5
:10415000C158DF4F88809980AA80BB80CF57D0405C
:10416000CD57DF4FF882C358D040CC57DF4FE8829D
:10417000C458D040CB57DF4FD882C558D040CA571B
:10418000DF4FC882C658D040CD57DF4FC880D98096
:10419000EA80FB80C358D040C957DF4F6882C758B8
:1041A000D040C857DF4F5882C858D040C757DF4F5C
:1041B0007882C958D040C657DF4F1883CA58D040BC
:1041C000C957DF4F088119812A813B81C758D040E8
:1041D000C557DF4F6883CB58D040C457DF4F788333
:1041E000CC58D040C357DF4F8883CD58D040C257FA
:1041F000DF4F9883CE58D040C557DF4F4881598153
:104200006A817B81CB58D040CF01E981FA81099541
:1042100072CC50968D919C910E942C1B6B837F8356
:104220001C01C555DF4FE881F981CB5AD040868506
:1042300097850E942C1B6B877F87482E892EC5553A
:10424000DF4FA881B981CB5AD0401C968D919C91AB
:104250000E942C1B062FB72EA82E992EC555DF4F76
:10426000E881F981CB5AD040828593850E942C1B2E
:10427000F62EE72ED82EC92EC555DF4FA881B9815D
:10428000CB5AD04018968D919C910E942C1B662E83
:10429000572E782E192FC555DF4FE881F981CB5A5B
:1042A000D040868197810E942C1B482FC555DF4F37
:1042B000A881B981CB5AD0405296ED91FC913F92A2
:1042C0002F92BF81BF932B812F938F924F923F8567
:1042D0003F938B858F93C157DF4F0883CF58D040D2
:1042E000C057DF4FB882C059D040CF56DF4FA882A9
:1042F000C159D040CE56DF4F9882C259D040C157E5
:10430000DF4F88809980AA80BB80CF58D040CD569F
:10431000DF4FF882C359D040CC56DF4FE882C459F2
:10432000D040CB56DF4FD882C559D040CA56DF4F58
:10433000C882C659D040CD56DF4FC880D980EA80A8
:10434000FB80C359D040C956DF4F6882C759D0405F
:10435000C856DF4F5882C859D040C756DF4F7882C1
:10436000C959D040C656DF4F1883CA59D040C956E4
:10437000DF4F088119812A813B81C759D040C5563A
:10438000DF4F6883CB59D040C456DF4F7883CC5978
:10439000D040C356DF4F4883CD59D040C256DF4F7F
:1043A0009883CE59D040C556DF4F488159816A81E4
:1043B0007B81CB59D040CF01E981FA81099535CC79
:1043C00052968D919C910E942C1B6B837F838B87CF
:1043D0009F87C555DF4FE881F981CB5AD04080894E
:1043E00091890E942C1B6B8B7F8B8B8F392EC5552F
:1043F000DF4FA881B981CB5AD0401E968D919C91F8
:104400000E942C1B6F8F272E482E9BA3C555DF4F74
:10441000E881F981CB5AD040848595850E942C1B78
:104420006FA37BA78FA79BABC555DF4FA881B98131
:10443000CB5AD0401A968D919C910E942C1B062F2E
:104440007FAB8BAF9FAFC555DF4FE881F981CB5A6A
:10445000D040808591850E942C1B662E572E782E89
:10446000192FC555DF4FA881B981CB5AD040169678
:104470008D919C910E942C1B482FC555DF4FA88120
:10448000B981CB5AD0405496ED91FC91BF85BF9332
:104490002B852F933F813F938B818F933F92AB8DE1
:1044A000AF93BF89BF932B892F933BA13F934F922B
:1044B0002F928F8D8F938FA09BA4AFA4BBA8C02EEB
:1044C000DFA8EBACFFACC156DF4F6882CF59D040BC
:1044D000C056DF4F5882C05AD040CF55DF4F788248
:1044E000C15AD040CE55DF4F1883C25AD040C15672
:1044F000DF4F088119812A813B81CF59D040CD55AA
:10450000DF4F6883C35AD040CC55DF4F7883C45AFD
:10451000D040CB55DF4F4883C55AD040CA55DF4FF6
:104520009883C65AD040CD55DF4F488159816A8162
:104530007B81C35AD040CF01E981FA81099575CBBF
:104540004F925F926F927F928F929F92AF92BF92A3
:10455000CF92DF92EF92FF920F931F93CF93DF934F
:10456000EC01888199818230910558F185FF29C03D
:104570007C0128E1E222FF24E114F10419F08770A4
:1045800099277C015E01F6E0AF0EB11CC12CD12C45
:1045900001E010E0CE14DF0429F5012B91F0CE01EB
:1045A0000E942C1B7B018C01CE010E94751681E0BC
:1045B00090E099838883270138014A825B826C826C
:1045C0007D82DF91CF911F910F91FF90EF90DF904F
:1045D000CF90BF90AF909F908F907F906F905F90A3
:1045E0004F900895F501819191915F010E94A02261
:1045F000F50132970190F081E02D88248394912C6D
:1046000080819181019709F0812C08211921FFEF08
:10461000CF1ADF0ABFCFEF92FF920F931F93CF9372
:10462000DF93CDB7DEB760970FB6F894DEBF0FBE4D
:10463000CDBF89018B839C8389839A837E876D8715
:10464000588B4F87CE0101960E94A716CE01019686
:104650000E9493187C01892BA9F48FEF9FEF01151D
:10466000110551F5E12CF12CC70160960FB6F894B5
:10467000DEBF0FBECDBFDF91CF911F910F91FF9095
:10468000EF9008958D819E814A97D1F0C7010E94D5
:1046900066160115110531F32B813C8189819A81C0
:1046A000A901481B590B2817390721F0F80151833C
:1046B0004083D8CF81E090E0F80191838083D2CF0E
:1046C000C7010E94A0220115110571F2F8011182A3
:1046D0001082CACF8F929F92AF92BF92EF92FF92B9
:1046E0000F931F93CF93DF939B0140E050E060E076
:1046F00070E00E940B237C010097C1F00E942C1BEC
:104700008B01D82FC92FC7010E9466164801AD2E14
:10471000BC2EC501B401DF91CF911F910F91FF9085
:10472000EF90BF90AF909F908F90089520E030E081
:10473000A901CA01B9010E9402298B01D82FC92FF2
:10474000E5CFCDB7DEB7CB55D1090FB6F894DEBFB4
:104750000FBECDBF8FEF84B91AB88BB90E947D0010
:104760002E0123E3420E511C84E2F20111928A953C
:10477000E9F79E012F5F3F4F690182E3F901119232
:104780008A95E9F76B961CAE1DAE1EAE1FAE6B97F9
:10479000312CA12CB12C22E0E22EF12C8AB166241E
:1047A0006394712C0E2C01C0660C0A94EAF78629DA
:1047B0008AB9F5EDFA95F1F700008BB1262D209519
:1047C0006C962FAF6C9782238BB92A2C42018A0CEE
:1047D0009B1C02E010E00E1599F189B1F4012081D3
:1047E00090E0002E02C0959587950A94E2F7809597
:1047F0009095817099272817190611F1F1E02F275C
:10480000F401208389B190E0002E02C09595879530
:104810000A94E2F780FD14C0F60101900020E9F748
:10482000CF010197EFEFE20DE23248F4F0E0EE57EE
:10483000FF4C0C94DE2A68E372E00E94112F89B1CC
:104840002394EFEF8E1A9E0A0F5F1F4F0830110559
:1048500011F68AB16C96FFAD6C978F238AB925ED5E
:104860002A95F1F700008BB186298BB93FEFE31A47
:10487000F30A46E0A40EB11C88E0E816F10409F042
:104880008DCF0E94960080E80E947700C6010E94AA
:10489000A00080EC0E9477006B966CAD7DAD8EAD74
:1048A0009FAD6B970E94DE009FEFE1EEF4E0915028
:1048B000E040F040E1F700C000006BCF6BE672E033
:1048C000BCCF6EE372E031100AC06FE372E00E9469
:1048D000112F312CB4CF311439F064E472E00E940E
:1048E000112F33243394ABCF65E472E0F0CF6AE448
:1048F00072E03110F4CF6BE472E0E9CF60E572E072
:104900009CCF311419F065E572E0E9CF68E572E0FB
:10491000DECF6AE572E091CF6CE572E08ECF6EE596
:1049200072E03110DCCF61E672E0D1CF3110EBCF15
:104930006FEA72E0CCCF65E672E07FCF67E672E0A7
:104940007CCF69E672E03110CACF6DE672E0BFCF6E
:1049500062E272E072CF62E772E06FCF64E772E00A
:104960006CCF66E772E069CF63E572E066CF6B9665
:104970002FAD6B972F936A962FAD6A972F936996F9
:104980002FAD69972F9368962FAD68972F9328E7DF
:1049900032E03F932F939F938F930E94612F0FB626
:1049A000F894DEBF0FBECDBF4ACF6BE772E045CFB4
:1049B0006DE772E042CF66E871E001973ECF6FE7A6
:1049C00072E03BCFBE01695A7F4FC6010E941101C0
:1049D00036CF61E872E031CF63E872E02ECF198202
:1049E0002ECF91E039262BCFA2E1B0E0EAEFF4E23E
:1049F0000C941A2B7C013B018A01FC011782168260
:104A0000838181FF68C3F7012381F30123FD859131
:104A100023FF81913F01811509F443C0853239F4A8
:104A200023FD959123FF91913F01953239F4B70110
:104A300090E00E94312F68018601E5CF30E0512CD3
:104A4000912C812CF0E28F1608F03DC09B3281F151
:104A500060F4903279F1933299F19E3209F04AC0B4
:104A600086FC1FC0689486F806C09D3231F19033F1
:104A700061F5689480F8F30123FD959123FF9191EE
:104A80003F019111DFCF882D897F482E903709F49F
:104A900094C208F08AC2983509F494C29F3609F48A
:104AA00099C2F701868197816296E2E10C94362BD8
:104AB000689481F8689482F8DECF689483F8DBCF3D
:104AC000689484F8D8CF87FC1FC080ED890F8A30A6
:104AD00008F0C3CF86FE06C04AE0549E800D112424
:104AE000582EC9CF5AE0959E800D1124982E6894B7
:104AF00085F8C1CF9C3619F4689487F8BCCF9C34F4
:104B000001F1983609F4B7CF3115E9F0892F8F7D7F
:104B10008554833008F0A5C1085F1F4F68018FE3FB
:104B2000898322242394312C8E010F5F1F4FE89438
:104B300087F883FC04C02914310408F4F9C1492C16
:104B40000DC231E098CF8BEB890F8330A8F46894C5
:104B500084F8905E86FC02C026E0522EE82DEF73AA
:104B60008E2E953689F4689486F828E0521608F05F
:104B700044C0252D1E8614C08BE9890F833008F0B0
:104B800070C1E89484F8E6CF963689F5689487F882
:104B9000852DFCE35F1608F08BE38F5F8E8727E09F
:104BA000F80161917191819191916F010E85AE0132
:104BB0004F5F5F4F0E94F22D5C01F981F88BF0FF8F
:104BC00003C01DE2F3FF05C082FA112715F981FC2D
:104BD0001BE228892C70422E211549F111117EC249
:104BE00024E0412C921608F490C283E07CC220E0BD
:104BF000511409F4BFCF5A94B8CF27E097E0592E4B
:104C0000B9CF81108052B70190E00E94312F0F5F21
:104C10001F4FF80184918111F4CF411409F40CCF96
:104C2000B70180E290E00E94312F4A94F6CF87FED0
:104C30002FC08E858A0DF889F4FF04C09A819133C4
:104C400009F4815018160CF048C08E87893010F096
:104C500028E02E87C501B7FE02C080E090E00196F3
:104C600011110196511431F0252D30E02F5F3F4F87
:104C7000820F931F8915910514F4492C481A882D29
:104C80008970811139C0411030C01115F1F136C061
:104C900086FC28C0E52DF0E05A141B043CF03CEFE4
:104CA000A3163FEFB30614F0689487F83296AE016E
:104CB0004F5F5F4FE40FF51F01C05A94511419F074
:104CC00082918033D1F387FE0DC051E0550D5E8790
:104CD000A514B1042CF45A18BDCF81E08E87BACF49
:104CE000512CB8CF85E090E0BBCFB70180E290E0D7
:104CF0000E94312F4A94C7CF111529F0B701812F97
:104D000090E00E94312F83FC02C0411040C087FE1A
:104D100059C04501B7FE02C0812C912CCE010196ED
:104D20008A0D9B1DFC01E819F909FA8BE98B9501A5
:104D30004E85241B31093F872E87052D10E01195E4
:104D400001951109A814B9044CF18E859F85881529
:104D5000990524F5E989FA898181F1E08F1A910892
:104D600029893A892F5F3F4F3A8B298B801691060C
:104D7000BCF0B70190E00E94312F3FEF83169306FD
:104D800009F7B7018EE290E00E94312FDBCFB70127
:104D900080E390E00E94312F4A94B7CF80E3DDCFCB
:104DA000A814B90441F49A81963350F4953319F458
:104DB000488944FF05C0B70190E00E94312F2DCFF4
:104DC00081E3F9CF8A81813319F058895F7E588B4E
:104DD000B70190E00E94312F511026C085E490E089
:104DE00084FC02C085E690E0B7010E94312FB7FC39
:104DF00006C0A114B10471F5888984FF2BC0B19459
:104E0000A194B1088DE2B70190E00E94312F80E3B8
:104E1000EAE0AE16B10404F5B70190E00E94312F2C
:104E2000B701C501C096C9CFB7018EE290E00E94DC
:104E3000312F5394539412E0812F1F5FFE0131965E
:104E4000E80FF11D8081B70190E00E94312F15110C
:104E5000F3CFC4CF8BE2D7CF8F5F9AE0A91AB10806
:104E6000D7CF9336F1F1933709F442C0933509F463
:104E70004EC0943619F0993609F07CC0F80187FECF
:104E800071C061917191819191916F01082D0F769F
:104E900097FF08C090958095709561957F4F8F4FD3
:104EA0009F4F00682AE030E0AE014F5F5F4F5D87A3
:104EB0004C870E94842F182F5C85151B06FF94C019
:104EC000802F8E7F151508F08EC004FFE1C002FD13
:104ED000D5C00E7E452C802F8678811509F48FC0B1
:104EE000D2C06801F2E0CF0ED11CF801808118CE4B
:104EF000F801019111916F01652D70E086FC02C0EF
:104F00006FEF7FEFC8010E94262F1C0110CEF80121
:104F1000019111916F01652D70E086FC02C06FEF69
:104F20007FEFC8010E94F62E1C01689487F801CE1D
:104F3000B70180E290E00E94312F9A94FCCDF801F5
:104F400087FC859187FE81918F01B70190E00E94D7
:104F5000312F41104A94F1E02F1A31082114310405
:104F600071F75BCE619171916F01072E000C880B78
:104F7000990B8CCF482CE89444F82AE030E0953720
:104F800009F081CDF80147FE28C0619171918191AE
:104F900091916F018E010F5F1F4FA8010E94842F16
:104FA000182F101B042D0F7789CF983709F079CD72
:104FB00084FC05C020E130E0E5CF689444F86894B3
:104FC00042F8F8CF84FE03C0982D9660492E20E168
:104FD00032E0D8CF28E030E0D5CF619171916F01F8
:104FE00080E090E0D7CF082F412E04FF74CFFE0160
:104FF000E10FF11D8081803309F043C0097E03FD7C
:105000000EC000FF51C0512E491418F4590C541809
:10501000492C892D8419941408F480E0480E491411
:1050200008F044C09418492C04FF42C0B70180E343
:1050300090E00E94312F02FF09C088E590E001FD59
:1050400002C088E790E0B7010E94312F1515E0F10A
:105050001150012F10E00F5F1F4F9E012F5F3F4F38
:105060004901020F131FF80182918F01B70190E0EF
:105070000E94312F80169106B1F7CFCD452C082F15
:10508000B6CF02FD02C04394BACF43944394B7CF46
:10509000452C082F20CFB70180E290E00E94312FED
:1050A00083948914C0F3B5CF842CFBCF412CBCCFA3
:1050B000802F8678811551F280E201FD8BE207FD99
:1050C0008DE2B70190E0C0CFB70180E390E00E948D
:1050D000312F5A94BBCF8FEF9FEFE6CCF5E0412CF8
:1050E0009F1670F084E0492C481A83FC07C0B70172
:1050F00080E290E00E94312F4A94C9F7111529F0FF
:10510000B701812F90E00E94312F388908E610E026
:1051100033FD02C00CE610E0482D4071842E79CD9D
:105120005058BB27AA270E94A8280C94222A0E9424
:10513000142A38F00E941B2A20F039F49F3F19F4FA
:1051400026F40C94112A0EF4E095E7FB0C940B2A3C
:10515000E92F0E94332A58F3BA17620773078407AE
:10516000950720F079F4A6F50C94552A0EF4E095F5
:105170000B2EBA2FA02D0B01B90190010C01CA0111
:10518000A0011124FF27591B99F0593F50F4503EBC
:1051900068F11A16F040A22F232F342F4427585FAE
:1051A000F3CF469537952795A795F0405395C9F7C6
:1051B0007EF41F16BA0B620B730B840BBAF091507E
:1051C000A1F0FF0FBB1F661F771F881FC2F70EC01D
:1051D000BA0F621F731F841F48F4879577956795F0
:1051E000B795F7959E3F08F0B0CF9395880F08F0DC
:1051F0009927EE0F9795879508950E94E72908F45F
:1052000081E008950E9416290C94222A0E941B2AEC
:1052100058F00E94142A40F029F45F3F29F00C94C2
:105220000B2A51110C94562A0C94112A0E94332AED
:1052300068F39923B1F3552391F3951B550BBB27C5
:10524000AA2762177307840738F09F5F5F4F220F0A
:10525000331F441FAA1FA9F335D00E2E3AF0E0E801
:1052600032D091505040E695001CCAF72BD0FE2F4B
:1052700029D0660F771F881FBB1F261737074807DF
:10528000AB07B0E809F0BB0B802DBF01FF27935897
:105290005F4F3AF09E3F510578F00C940B2A0C9426
:1052A000562A5F3FE4F3983ED4F386957795679549
:1052B000B795F7959F5FC9F7880F911D96958795CC
:1052C00097F90895E1E0660F771F881FBB1F6217EB
:1052D00073078407BA0720F0621B730B840BBA0BA9
:1052E000EE1F88F7E09508950E947B296894B1111C
:1052F0000C94562A08950E943B2A88F09F5798F0F4
:10530000B92F9927B751B0F0E1F0660F771F881FCA
:10531000991F1AF0BA95C9F714C0B13091F00E94E4
:10532000552AB1E008950C94552A672F782F8827C5
:10533000B85F39F0B93FCCF3869577956795B3950B
:10534000D9F73EF490958095709561957F4F8F4F7A
:105350009F4F0895E89409C097FB3EF4909580957F
:10536000709561957F4F8F4F9F4F9923A9F0F92F2B
:1053700096E9BB279395F695879577956795B795A9
:10538000F111F8CFFAF4BB0F11F460FF1BC06F5F8F
:105390007F4F8F4F9F4F16C0882311F096E911C0A1
:1053A000772321F09EE8872F762F05C0662371F0C2
:1053B00096E8862F70E060E02AF09A95660F771FD6
:1053C000881FDAF7880F9695879597F90895990FB2
:1053D0000008550FAA0BE0E8FEEF16161706E807BF
:1053E000F907C0F012161306E407F50798F0621BE0
:1053F000730B840B950B39F40A2661F0232B242BB5
:10540000252B21F408950A2609F4A140A6958FEFD3
:10541000811D811D089597F99F6780E870E060E025
:1054200008959FEF80EC089500240A94161617063D
:1054300018060906089500240A9412161306140685
:1054400005060895092E0394000C11F4882352F0E8
:10545000BB0F40F4BF2B11F460FF04C06F5F7F4FA0
:105460008F4F9F4F089557FD9058440F551F59F087
:105470005F3F71F04795880F97FB991F61F09F3F41
:1054800079F087950895121613061406551FF2CF6A
:105490004695F1DF08C0161617061806991FF1CFBA
:1054A00086957105610508940895E894BB276627E1
:1054B0007727CB0197F908950E94E72908F48FEF29
:1054C00008950E94742A0C94222A0E94142A38F00B
:1054D0000E941B2A20F0952311F00C940B2A0C94A7
:1054E000112A11240C94562A0E94332A70F3959F96
:1054F000C1F3950F50E0551F629FF001729FBB27CB
:10550000F00DB11D639FAA27F00DB11DAA1F649F66
:105510006627B00DA11D661F829F2227B00DA11D19
:10552000621F739FB00DA11D621F839FA00D611D9F
:10553000221F749F3327A00D611D231F849F600DC0
:10554000211D822F762F6A2F11249F5750409AF0E9
:10555000F1F088234AF0EE0FFF1FBB1F661F771F75
:10556000881F91505040A9F79E3F510580F00C9440
:105570000B2A0C94562A5F3FE4F3983ED4F38695A9
:1055800077956795B795F795E7959F5FC1F7FE2BE0
:10559000880F911D9695879597F90895DB018F9354
:1055A0009F930E94E42ABF91AF91A29F800D911D0D
:1055B000A39F900DB29F900D11240895EE0FFF1F31
:1055C0000590F491E02D09940E946E2BA59F900DFB
:1055D000B49F900DA49F800D911D11240895E8940F
:1055E000DF93CF93FC01DB010E946E2B7F936F93BF
:1055F000E9019A01AC01BF93AF933F932F93DF0171
:105600000E946E2B26F46C1B7D0B820B930B9E016C
:10561000EB01FC010E947D2BAF91BF912F913F9137
:105620000E947D2BBE01CF01F9012F913F91CF91B7
:10563000DF9108952F923F924F925F926F927F92E7
:105640008F929F92AF92BF92CF92DF92EF92FF9292
:105650000F931F93CF93DF93CDB7DEB7CA1BDB0B3E
:105660000FB6F894DEBF0FBECDBF09942A883988E3
:1056700048885F846E847D848C849B84AA84B984EA
:10568000C884DF80EE80FD800C811B81AA81B981F6
:10569000CE0FD11D0FB6F894DEBF0FBECDBFED010A
:1056A000089597FD1094002E083098F00850232F8D
:1056B000342F452F562F672F782F892F912DF4CF18
:1056C000159497958795779567955795479537954D
:1056D00027950A95AAF71124002D0895A29FB001DD
:1056E000B39FC001A39F700D811D1124911DB29F16
:1056F000700D811D1124911D08950E946E2B460F7F
:10570000571FC81FD91F08F4319608950F931F9390
:10571000CF93DF939C01029710F422E030E0E091F8
:10572000BA02F091BB0280E090E0A0E0B0E03097D8
:1057300091F4009709F448C0821B930B84309105C3
:10574000D0F58A819B816115710581F1FB019383FD
:105750008283FE0111C04081518102811381421771
:105760005307D8F04217530799F4109761F0129637
:105770000C93129713961C933296CF01DF91CF9121
:105780001F910F9108950093BA021093BB02F4CFBA
:10579000009751F04817590738F0AC01DB01CA01F6
:1057A000BD01DF01F801C3CFEF01F9CF9093BB0238
:1057B0008093BA02CECFFE01E80FF91F21933193F7
:1057C000029799838883D9CF4091BC025091BD0242
:1057D0004115510541F4409182015091830150934C
:1057E000BD024093BC02809180019091810100979D
:1057F00041F48DB79EB76091840170918501861B3D
:10580000970B4817590708F0B8CF841B950B8217E0
:10581000930708F4B2CFB9016E5F7F4F86179707E1
:1058200008F4ABCF640F751F7093BD026093BC0288
:10583000FA0121933193A1CFCF93DF939C0100977D
:10584000E9F0FC01329713821282C091BA02D09122
:10585000BB02DE0180E090E02097A1F4808191817D
:10586000280F391F8091BC029091BD0282179307C7
:1058700009F068C0F093BD02E093BC02DF91CF91C4
:105880000895DA01AE17BF0708F042C012964D9195
:105890005C911397CD014115510599F7DC011396E1
:1058A000FC93EE9312974D915D919D01240F351F4E
:1058B000E217F30781F4208131812E5F3F4F240FDF
:1058C000351FDC0111963C932E9322813381139670
:1058D0003C932E931297E0E0F0E08A819B81009741
:1058E000B1F5DE018D919D918A0F9B1F2091BC0225
:1058F0003091BD022817390709F6309759F51092F3
:10590000BB021092BA02D093BD02C093BC02B6CFC4
:10591000B383A28340815181240F351FA217B3079F
:1059200071F44E5F5F4F2D913C911197240F351FFD
:105930003183208312962D913C91338322830097EB
:1059400009F0ACCFF093BB02E093BA0297CFFE010F
:10595000EC01C3CF13821282D6CFA0E0B0E0E3EB1C
:10596000FCE20C941C2BEC016B016115710519F024
:10597000FB01918380837E012196F7010081802FB6
:1059800090E00E94D52E5C01892BA9F70D3291F58C
:10599000C701029608817E01EC0111E043E050E06E
:1059A00066ED7FE5C7010E94DE2E892B61F5229608
:1059B0007E0145E050E061ED7FE5CE010E94DE2EE4
:1059C000892B19F425E0E20EF11CC114D10419F061
:1059D000F601F182E082412C512CD0E86D2E772423
:1059E0007A94111126C0412C512C80E8682E8FE743
:1059F000782E1FC00B3229F4C701029608817E0160
:105A0000EC0110E0CBCF43E050E06EEC7FE5C70146
:105A10000E94DE2E892BA1F4C114D10421F022961C
:105A2000F601D183C083412C512CC0EC6C2ECFE702
:105A30007C2EC301B201CDB7DEB7E0E10C94382B68
:105A4000E12CF12C60E070E0CB0100530A3058F5F6
:105A5000E12FE260212F287012FF08C0211103C03E
:105A6000FFEFEF1AFF0A09911E2FEFCF211519F052
:105A700021E0E21AF108A5E0B0E09B01AC010E9430
:105A8000E42A660F771F881F991F600F711D811D03
:105A9000911D683949E97407840749E1940718F3AF
:105AA000E12FE660E0CF0E3F29F413FD3BC0E12F6C
:105AB000E860D9CF0F7D0531A9F5E881ED3241F4D9
:105AC00010619E012E5F3F4FE98142E050E007C028
:105AD0009E01EB32B9F32F5F3F4F41E050E0E053BE
