:100000000C9434000C943E000C943E000C943E0082
:100010000C943E000C943E000C943E000C943E0068
:100020000C943E000C943E000C943E000C943E0058
:100030000C943E000C943E000C943E000C943E0048
:100040000C943E000C943E000C943E000C943E0038
:100050000C943E000C943E000C943E000C943E0028
:100060000C943E000C943E0011241FBECFEFD8E04C
:10007000DEBFCDBF0E948F000C949E000C94000048
:1000800000E204B90CE30AB905E005BD089500E2F9
:1000900013B1102715B9089505B312E00123E1F358
:1000A00015BB8A95C9F70895A3B10A2F01701A2FBD
:1000B000169511702A2F2695269521703A2F369580
:1000C000369536953170402F4095512F50955023DD
:1000D000832F80955823812F8423582B612F60957F
:1000E000642B6223822F809580238123682B802FAD
:1000F00081238223732F7423782B71706170517068
:100100004170770F770F770F660F660F550F842FAB
:10011000862B852B872B880F880F8BB908950E941B
:1001200040000E9454000E94470080E20E944C0060
:100130000E94470080E20E944C00F3CFF894FFCF6A
:00000001FF
