:100000000C9434000C943E000C943E000C943E0082
:100010000C943E000C943E000C943E000C943E0068
:100020000C943E000C943E000C943E000C943E0058
:100030000C943E000C943E000C943E000C943E0048
:100040000C943E000C943E000C943E000C943E0038
:100050000C943E000C943E000C943E000C943E0028
:100060000C943E000C943E0011241FBECFEFD8E04C
:10007000DEBFCDBF0E94A2000C94D0010C94000002
:1000800082FB442740F983FB662760F984FBEE2757
:10009000E0F985FB882780F971E0362F3727542F48
:1000A0005727252F28232323962F9E239423292B5C
:1000B000220F220F220F252B982F9727932394236B
:1000C000852F8623982B990F822F892B9E2F972778
:1000D00046239423352B3E23932B990F990F892B7D
:1000E000880F880F089582FB222720F983FB44277D
:1000F00040F984FB992790F981E0542F5827322F3B
:100100003827892785238223632F6423862B880F32
:10011000932395232423922B990F990F892B832BBB
:10012000880F880F089582FB992790F98695869508
:100130008695809521E029278223990F892B880FA6
:10014000880F089584B18F6384B98AB18C638AB9AA
:1001500087B1876087B9D0E0912CE12C18E0CCE022
:1001600094E1F92E00E0D12CCC24C39420E1822E1E
:1001700030E2732E44E0642E58E0552E62E0462EA5
:100180008E2D0E944000E82EAA24A394B12C992D14
:1001900096B086B1892780FF06C0309B04C081E0FD
:1001A000D11180E0D82F86B1892781FF08C0319B0B
:1001B00006C0D11521F0DD0FD83009F4D1E086B1A9
:1001C000892782FF79C0D11509F478C0329B09C014
:1001D000D23009F454C0D43009F45CC0D13009F4F1
:1001E000C7C081E09AE2A916B1040CF480E09D2F0B
:1001F00091709C1103C0811509F4BDC0EBB8C5B85E
:10020000EFE3FFE13197F1F700C00000DBB845B83C
:10021000EFE3FFE13197F1F700C000002D2FD1FB94
:10022000992790F99C1103C0811509F4ABC00BB953
:1002300065B8EFE3FFE13197F1F700C00000FBB8CC
:1002400055B8EFE3FFE13197F1F700C0000022FB62
:10025000222720F92C1103C0811509F49AC0CBB9CB
:1002600085B88FE39FE10197F1F74EC0183009F090
:100270006EC0CC3009F06BC0C4E210E068C004323C
:1002800021F48F2D0E947300F82E802F0E944000D1
:10029000082FA7CFC43249F4812F0E949300182F52
:1002A0008C2F0E944000C82F9CCF1830C9F7CC304B
:1002B000B9F710E0C4E2F4CFD11193CFEBB8C5B8D1
:1002C000EFE3FFE13197F1F700C00000DBB845B87C
:1002D0008FE39FE10197F1F700C000000BB965B80B
:1002E000EFE3FFE13197F1F700C00000FBB855B82C
:1002F0008FE39FE10197F1F700C00000CBB985B80B
:10030000EFE3FFE13197F1F700C000001BB975B8CA
:100310008FE39FE10197F1F700C000009FEFA91A5A
:10032000B90AE4E5AE16B10409F031CF84E2E8126F
:1003300027CF94E1D91217C0043289F4F9120BC007
:10034000C43209F093CF812F0E949300182F8C2F75
:100350000E944000C82F8F2D0E947300F82E802F1E
:100360000E944000082F8D2D0E947300D82E08CFC8
:10037000D12CE12C36CFEFE3FFE13197F1F700C04C
:10038000000046CFEFE3FFE13197F1F700C0000036
:1003900058CFEFE3FFE13197F1F700C00000B8CF8D
:0403A000F894FFCFFF
:00000001FF
