:100000000C9434000C9449000C9449000C94490061
:100010000C9449000C9449000C9449000C9449003C
:100020000C9449000C9449000C9449000C9449002C
:100030000C9449000C9449000C9449000C9449001C
:100040000C9449000C9449000C9449000C9449000C
:100050000C9449000C9449000C9449000C944900FC
:100060000C9449000C94490011241FBECFEFD8E036
:10007000DEBFCDBF11E0A0E0B1E0E8E5F2E002C0F4
:1000800005900D92AC30B107D9F70E94D0000C94C6
:100090002A010C940000299A85ED8A95F1F7000059
:1000A0002998089595B1937C95B984FD2A9A85FD88
:1000B0002B9A86FD2C9A87FD2D9A0C944B00CF939A
:1000C000C82F0E9452008C2F8295807F0E94520080
:1000D0002D98CF91089528980C945F00289A0C943D
:1000E0005F0083E30E946B0082E30E946B0088E262
:1000F0000E946B008CE00E946B0084E00E946B0009
:1001000081E00E946B008FED9EE20197F1F700C045
:100110000000089581E00E946B008FED9EE2019740
:10012000F1F700C000000895CF93DF93EC018991AF
:10013000811103C0DF91CF9108950E946E00F7CF27
:100140000F931F93CF93DF93CDB7DEB728970FB6EA
:10015000F894DEBF0FBECDBF8E010F5F1F4F28E0AA
:10016000F80111922A95E9F74AE0B8010E94F500DA
:10017000C8010E94940028960FB6F894DEBF0FBE07
:10018000CDBFDF91CF911F910F910895299A3FEF35
:1001900048E201D029983A95F1F74A95E1F7089598
:1001A000CDB7DEB72B970FB6F894DEBF0FBECDBF2D
:1001B0008FEF84B90E9471000E948A008BE0E0E01A
:1001C000F1E0DE01119601900D928A95E1F7CE01E2
:1001D00001960E9494002FEF8BE49DE12150804016
:1001E0009040E1F700C00000E7CFBB274A3031F470
:1001F000992322F4BDE2909581959F4F0C940101C3
:10020000BB27FB015527AA27880F991FAA1FA417F0
:1002100010F0A41B83955051B9F7A05DAA3308F0E4
:10022000A95DA193009779F7B111B1931192CB0118
:100230000C941A01DC01FC01672F71917723E1F71F
:10024000329704C07C916D9370836291AE17BF07A3
:08025000C8F30895F894FFCFF4
:0C025800537570205927616C6C21000068
:00000001FF
